S0120000636F75727365776F726B2E73726563BE
S113000080C00000A9C400009AC0000098C000008D
S113001096C0000094C0000092C0000090C0000090
S11300208EC000008CC000008AC0000088C00000A0
S113003086C0000084C0000082C0000080C00000B0
S11300407EC000007CC000007AC0000078C00000C0
S113005076C0000074C0000072C0000070C00000D0
S11300606EC000006CC000006AC0000068C00000E0
S113007066C0000064C0000062C0000060C00000F0
S11300805EC000005CC000005AC0000058C0000000
S113009056C0000054C0000052C0000050C0000010
S11300A04EC000004CC000004AC0000048C0000020
S11300B046C0000044C0000042C0000040C0000030
S11300C03EC000003CC000003AC0000038C0000040
S11300D036C0000034C0000032C0000030C0000050
S11300E02EC000008101DA011B0250021F022F0200
S11300F05002500247026364696E6F7073757858DA
S11301005B0011241FBECFEFD1E2DEBFCDBF15E0EF
S1130110A0E0B2E0E2E0F9E100E00BBF02C007902A
S11301200D92AA39B107D9F725E0AAE9B5E001C0D3
S11301301D92AA3BB207E1F7F4D30C947F0C60CF75
S11301401092C50083E38093C40088E18093C100CA
S113015086E08093C2000895DC01FC010190002038
S1130160E9F73197AF01481B590B20E030E00CC090
S11301709091C00095FFFCCFFD01E20FF31F908129
S11301809093C6002F5F3F4F241735078CF30895D3
S11301908091C0008823E4F78091C60008950F93EE
S11301A01F93CF93DF93CDB7DEB764970FB6F89460
S11301B0DEBF0FBECDBF9F938F9388E092E09F93E5
S11301C08F938E010F5F1F4F1F930F9337D5C80175
S11301D0C3DF0F900F900F900F900F900F906496C5
S11301E00FB6F894DEBF0FBECDBFDF91CF911F9144
S11301F00F910895CF93DF93EB016BE072E0D2D4BB
S1130200892B49F462E172E0CE01CCD4892B31F020
S113021080E090E005C080E090E002C081E090E0E2
S1130220DF91CF910895CF92DF92EF92FF920F93D7
S11302301F93CF936C017B0100E010E00EC0A8DF98
S1130240C82F90E089DFCA3069F0CD3059F0F6014B
S1130250E00FF11FC0830F5F1F4FC70101970817FD
S113026019076CF3F601E00FF11F1082CF911F9173
S11302700F91FF90EF90DF90CF9008950F931F930D
S1130280CF93DF93CDB7DEB766970FB6F894DEBF92
S11302900FBECDBF64E170E08E010F5F1F4FC80138
S11302A0C2DFCE0145969F938F9388E092E09F939F
S11302B08F931F930F93F0D40F900F900F900F9084
S11302C00F900F908D899E8966960FB6F894DEBFC5
S11302D00FBECDBFDF91CF911F910F910895CF93A2
S11302E057DFC82F88E892E037DF8C2FCF9108952D
S11302F0C1978930910508F0D0C08E589F4FFC01FA
S113030048C486E192E028DF69E070E085EA95E080
S11303108ADF85E292E020DF85EA95E01DDF88E848
S113032092E01ADF84E392E017DFA8DF9093A2053E
S11303308093A10585E292E00FDF8091A105909161
S1130340A2052DDF88E892E007DF82E492E004DF73
S113035095DF9093A00580939F0585E292E0FCDEF3
S113036080919F059091A0051ADF88E892E0F4DE61
S11303706091A3057091A40549E050E085EA95E0F9
S11303800E94650C6091A1057091A20580910602FE
S1130390909107020E947C0C60919F057091A005CA
S11303A080910402909105020E947C0C80E592E009
S11303B0D3CE08956091A3057091A40549E050E05F
S11303C085EA95E00E94500C809106029091070204
S11303D00E94600C9093A2058093A1058091040271
S11303E0909105020E94600C9093A00580939F0554
S11303F08BE892E0B1DE86E192E0AEDE85EA95E03C
S1130400ABDE88E892E0A8DE84E392E0A5DE80918A
S1130410A1059091A205C3DE88E892E09DDE82E406
S113042092E09ADE80919F059091A005B8DE88E85D
S113043092E092CE089583EA92E0D0C30895809129
S11304409E058F9380919D058F9385EB92E09F93FA
S11304508F93B1D30F900F900F900F9008958091C8
S113046003028F93809102028F93809101028F93F4
S1130470809100028F9388ED92E09F938F939BD39A
S11304800F900F900F900F900F900F90089510926F
S11304909A058FEF92E060CE08958DE093E05CCEF4
S11304A008951F93CF93DF93CDB7DEB7A8970FB608
S11304B0F894DEBF0FBECDBF80E393E04DDE8EE542
S11304C093E04ADE10E026C08AE793E045DE64E16B
S11304D070E0CE010196A7DE88E892E03DDE80E977
S11304E093E03ADE64E170E0CE0145969CDE88E854
S11304F092E032DEBE016B5E7F4FCE0101967ADE62
S1130500892B29F086EA93E027DE11E003C08AEB09
S113051093E022DE1123C1F28CEE93E01DDE80E035
S113052094E01ADE88E194E017DE83E394E014DEBD
S11305308AE494E011DE82E794E00EDE86E994E03A
S11305400BDE8CEB94E008DE83ED94E005DE8FEEA9
S113055094E002DE8CEF94E0FFDDC1DE182F90E022
S1130560C7DE1933C9F68FEF92E0F6DDA8960FB611
S1130570F894DEBF0FBECDBFDF91CF911F910895D8
S113058084B3886084BB89EF90E00197F1F700C0E1
S1130590000084B3877F84BB89EF90E00197F1F773
S11305A000C0000008958093020184B3826084BB7C
S11305B084B38B7F84BBE4CF08958093020184B31A
S11305C08D7F84BB84B38B7F84BBDACF08958FE0A7
S11305D0F4DF8FE3F2DF81E0F0CF0895EF92FF9232
S11305E00F931F93CF93DF937C01FC0101900020B4
S11305F0E9F731978F01081B190BC0E0D0E006C062
S1130600F701EC0FFD1F8081CEDF2196C017D107C3
S1130610BCF3DF91CF911F910F91FF90EF9008955C
S11306208BEF80930B018091090183FD07C081E06A
S113063090E09093B3058093B20515C080910901B1
S113064084FD07C084E090E09093B3058093B205E5
S11306500AC08091090185FD06C087E090E090936F
S1130660B3058093B2058DEF80930B01809109014E
S113067083FD07C082E090E09093B3058093B205B8
S11306801CC08091090184FD07C085E090E090932F
S1130690B3058093B20511C08091090185FD07C09F
S11306A088E090E09093B3058093B20506C04E991C
S11306B004C01092B3051092B2058EEF80930B0123
S11306C08091090183FD07C083E090E09093B30516
S11306D08093B20515C08091090184FD07C086E0AE
S11306E090E09093B3058093B2050AC0809109010C
S11306F085FD06C089E090E09093B3058093B20530
S11307008091B2059091B3050895CF92DF92EF9254
S1130710FF920F931F93CF93DF93CDB7DEB7289744
S11307200FB6F894DEBF0FBECDBF81E046DF80E890
S113073044DF8BE395E052DF89EC3FDF88E495E00A
S11307404DDF80E93ADF80E595E048DF00E010E026
S113075002C066DF8C0101151105D9F389E92DDF8B
S113076080E3800F20DF2FE946E881E021504040FC
S11307708040E1F700C000008CED95E0089F600127
S1130780099FD00C189FD00C1124DF92CF9288E0DF
S113079092E09F938F93CE0101967C019F938F9358
S11307A04DD281E00ADF80E808DF83ED90E3019712
S11307B0F1F700C000008AE595E010DF85ECFDDE6E
S11307C0C7010CDF8AECF9DE86E695E007DF83EDEE
S11307D090E30197F1F700C0000080E9EEDE8BE6BC
S11307E095E0FCDE80EDE9DE8AE795E0F7DE0F9028
S11307F00F900F900F900F900F90EE24E394F12C34
S11308007CC00EDF7C0191E0E916F10409F06BC0B5
S113081011C0E8E0F1E08081816080834FE38DE0E6
S113082093E0415080409040E1F700C000002F5F0A
S11308303F4F02C020E030E02330310554F3E8E0BC
S1130840F1E080818E7F80832FE74AE186E02150AA
S113085040408040E1F700C0000020E030E01CC0D0
S1130860E8E0F1E08081816080839FE74AE186E0EF
S1130870915040408040E1F700C0000080818E7FAD
S113088080839FE74AE186E0915040408040E1F751
S113089000C000002F5F3F4F201731070CF38091F9
S11308A09B0590919C058C0D9D1D90939C058093B8
S11308B09B05B801012E000C880B990BDED09B011F
S11308C0AC0160910002709101028091020290914A
S11308D003026CD0609300027093010280930202C1
S11308E0909303020AC0E114F10439F481E065DE57
S11308F080E863DE88E895E071DE92E0E916F104B1
S113090008F07FCF28960FB6F894DEBF0FBECDBF98
S1130910DF91CF911F910F91FF90EF90DF90CF90D7
S1130920089582E084B987E880930A018FEF809369
S1130930010183BB809307014ADE02DCB2DDE5DE00
S113094078948DB381608DBBE9E6F0E080818260AC
S1130950808380E090E008951F920F920FB60F926B
S113096011242F938F939F93189918C085B1826097
S113097085B92FE986E891E0215080409040E1F765
S113098000C0000085B18D7F85B92FE986E891E02C
S1130990215080409040E1F700C000009F918F916A
S11309A02F910F900FBE0F901F9018955058BB2792
S11309B0AA270ED0B4C0A5D030F0AAD020F031F4CC
S11309C09F3F11F41EF49AC00EF4E095E7FB90C02B
S11309D0E92FB6D080F3BA17620773078407950727
S11309E018F071F49EF5CEC00EF4E0950B2EBA2FDC
S11309F0A02D0B01B90190010C01CA01A001112421
S1130A00FF27591B99F0593F50F4503E68F11A16CC
S1130A10F040A22F232F342F4427585FF3CF46955D
S1130A2037952795A795F0405395C9F77EF41F167F
S1130A30BA0B620B730B840BBAF09150A1F0FF0F49
S1130A40BB1F661F771F881FC2F70EC0BA0F621F35
S1130A50731F841F48F4879577956795B795F79525
S1130A609E3F08F0B3CF9395880F08F09927EE0FB7
S1130A70979587950895E89409C097FB3EF490955F
S1130A808095709561957F4F8F4F9F4F9923A9F063
S1130A90F92F96E9BB279395F695879577956795F2
S1130AA0B795F111F8CFFAF4BB0F11F460FF1BC036
S1130AB06F5F7F4F8F4F9F4F16C0882311F096E9C9
S1130AC011C0772321F09EE8872F762F05C0662377
S1130AD071F096E8862F70E060E02AF09A95660F30
S1130AE0771F881FDAF7880F9695879597F90895E9
S1130AF097F99F6780E870E060E008959FEF80ECCD
S1130B00089500240A94161617061806090608956F
S1130B1000240A9412161306140605060895092ED5
S1130B200394000C11F4882352F0BB0F40F4BF2B44
S1130B3011F460FF04C06F5F7F4F8F4F9F4F089584
S1130B4057FD9058440F551F59F05F3F71F047957A
S1130B50880F97FB991F61F09F3F79F0879508955F
S1130B60121613061406551FF2CF4695F1DF08C07E
S1130B70161617061806991FF1CF8695710561059B
S1130B8008940895E894BB2766277727CB0197F943
S1130B900895EE0FFF1F0024001C0BBE0790F69172
S1130BA0E02D0994FB01DC018D9101908019011065
S1130BB0D9F3990B0895CF93DF93CDB7DEB7AE0188
S1130BC04B5F5F4FFA0161917191AF018091B6055E
S1130BD09091B70582D0DF91CF9108950F931F9321
S1130BE0CF93DF93E091B605F091B705238121FF00
S1130BF01BC08C01D0E0C0E0F80181918F016091AD
S1130C00B6057091B705DB011896ED91FC91199723
S1130C10882331F00995892B79F3DFEFCFEFECCFFF
S1130C208AE00995892B19F08FEF9FEF02C08D2F71
S1130C309C2FDF91CF911F910F9108950F931F93D4
S1130C40CF93DF93CDB7DEB72E970FB6F894DEBF00
S1130C500FBECDBF0D891E8986E08C831A8309835C
S1130C608FEF9FE79E838D83AE01475E5F4F6F8951
S1130C70788DCE01019631D0EF81F885E00FF11F18
S1130C8010822E960FB6F894DEBF0FBECDBFDF9153
S1130C90CF911F910F910895CF93DF93CDB7DEB716
S1130CA02E970FB6F894DEBF0FBECDBF85E08C83C0
S1130CB08B899C899A838983AE01495E5F4F6D89D4
S1130CC07E89CE010196B8D32E960FB6F894DEBF76
S1130CD00FBECDBFDF91CF9108952F923F924F92D7
S1130CE05F926F927F928F929F92AF92BF92CF92B8
S1130CF0DF92EF92FF920F931F93CF93DF93CDB7C1
S1130D00DEB72B970FB6F894DEBF0FBECDBF6C01D4
S1130D107B018A01FC0117821682838181FFBFC196
S1130D20CE0101963C01F6019381F70193FD859173
S1130D3093FF81917F01882309F4ADC1853239F491
S1130D4093FD859193FF81917F01853221F4B60152
S1130D5090E0F0D4E8CF912C212C312CFFE1F31555
S1130D60D8F08B3279F038F4803279F08332A1F400
S1130D70232D20611DC08D3261F0803369F4232D51
S1130D80216016C0832D8260382EE32DE4603E2E50
S1130D902AC0F32DF8601DC037FC2DC020ED280FAC
S1130DA02A3040F08E32B9F436FC75C1232D20640C
S1130DB0322E19C036FE06C08AE0989E200D1124FA
S1130DC0922E11C0EAE02E9E200D1124222EF32D26
S1130DD0F0623F2E08C08C3621F4832D8068382EB3
S1130DE002C0883641F4F70193FD859193FF819108
S1130DF07F018111B3CF982F9F7D9554933028F4B0
S1130E000C5F1F4F9FE399830DC0833631F0833706
S1130E1071F0833509F055C020C0F80180818983C1
S1130E200E5F1F4F88248394912C530112C0280114
S1130E30F2E04F0E511CF801A080B18036FE03C0D1
S1130E40692D70E002C06FEF7FEFC5012AD44C0119
S1130E508201F32DFF773F2E15C0280122E0420EB8
S1130E60511CF801A080B18036FE03C0692D70E0EA
S1130E7002C06FEF7FEFC50109D44C01F32DF06878
S1130E803F2E820133FC19C0822D90E0881699060A
S1130E90A0F4B60180E290E04DD42A94F5CFF50198
S1130EA037FC859137FE81915F01B60190E042D411
S1130EB021102A9421E0821A91088114910479F76F
S1130EC0E1C0843611F0893639F5F80137FE07C0E0
S1130ED060817181828193810C5F1F4F08C06081A2
S1130EE07181072E000C880B990B0E5F1F4FF32D99
S1130EF0FF763F2E97FF09C0909580957095619578
S1130F007F4F8F4F9F4FF0683F2E2AE030E0A301C0
S1130F1066D4882E861844C0853731F4232D2F7E5D
S1130F20B22E2AE030E025C0932D997FB92E8F365A
S1130F30C1F018F4883579F0AEC0803719F08837DD
S1130F4021F0A9C0E92FE061BE2EB4FE0DC0FB2D37
S1130F50F460BF2E09C034FE0AC0292F2660B22EC9
S1130F6006C028E030E005C020E130E002C020E106
S1130F7032E0F801B7FE07C06081718182819381FC
S1130F800C5F1F4F06C06081718180E090E00E5FAE
S1130F901F4FA30124D4882E8618FB2DFF773F2EE4
S1130FA036FE0DC0232D2E7FA22E891458F434FE54
S1130FB00BC032FC09C0832D8E7EA82E05C0B82C30
S1130FC0A32C03C0B82C01C0B92CA4FE0FC0FE0191
S1130FD0E80DF11D8081803321F49A2D997EA92E8C
S1130FE009C0A2FE06C0B394B39404C08A2D8678C7
S1130FF009F0B394A3FC10C0A0FE06C0B21480F4A0
S1131000280C922C9B180DC0B21458F4B60180E23F
S113101090E090D3B394F8CFB21418F42B1802C014
S1131020982C212CA4FE0FC0B60180E390E082D35B
S1131030A2FE16C0A1FC03C088E790E002C088E5C8
S113104090E0B6010CC08A2D867851F0A1FE02C052
S11310508BE201C080E2A7FC8DE2B60190E06AD386
S1131060891430F4B60180E390E064D39A94F8CF05
S11310708A94F301E80DF11D8081B60190E05AD302
S11310808110F6CF222009F44ECEB60180E290E022
S113109051D32A94F7CFF6018681978102C08FEF4E
S11310A09FEF2B960FB6F894DEBF0FBECDBFDF9136
S11310B0CF911F910F91FF90EF90DF90CF90BF9051
S11310C0AF909F908F907F906F905F904F903F90E4
S11310D02F90089520FD09C0FC0123FD05C022FFC7
S11310E002C07383628351834083089544FD17C013
S11310F046FD17C0AB01BC01DA01FB01AA0FBB1FFF
S1131100EE1FFF1F1094D1F74A0F5B1F6E1F7F1F46
S1131110CB01BA01660F771F881F991F09C033E0FE
S113112001C034E0660F771F881F991F3150D1F733
S1131130620F711D811D911D08950F931F93CF930D
S1131140DF938C01C801B8D2EC0197FD06C08BD2A5
S1131150892BC1F7B801CE0129D3CE01DF91CF91FC
S11311601F910F9108958F929F92AF92BF92EF9229
S1131170FF920F931F93CF93DF938C01D62F7A01A5
S1131180B22E9AD29C0133272B32310531F02D3205
S1131190310559F48B2D8068B82ED15011F480E0BC
S11311A061C0C80189D297FDFACFCB2DCD7F2B2DFD
S11311B02073F9F48033E9F4AA24AA94AD0E09F457
S11311C03EC0C80179D297FD3AC09C012F7D3327D8
S11311D02835310541F4C264D25089F1C8016CD27A
S11311E097FF07C02CC0B6FE02C0C26001C0C26136
S11311F0DA2D812C912C540120ED280F283078F021
S1131200C4FF03C0B801D2D217C02A3040F0C6FFD1
S1131210F9CF2F7D3FEE320F3630A0F727504C2FF9
S1131220C501B40163DF4B015C01C260D15051F0D0
S1131230C80142D297FFE0CFC1FD04C0B0CF812CDA
S1131240912C5401C7FF08C0B094A094909480944A
S1131250811C911CA11CB11C2C2FB501A401C70138
S113126039DF81E0DF91CF911F910F91FF90EF90D3
S1131270BF90AF909F908F9008955F926F927F92EE
S11312808F929F92AF92BF92CF92DF92EF92FF9292
S11312900F931F93CF93DF93CDB7DEB7A0970FB60D
S11312A0F894DEBF0FBECDBF5C01962E7A01F90122
S11312B08E010F5F1F4F680180E2D8011D928A954D
S11312C0E9F7D50113968C9080E090E0612C712CA5
S11312D030E061E070E083FC259183FE21918F0171
S11312E0522E211103C080E090E090C02E3511F4FD
S11312F0009751F1432F50E0481759073CF42D351E
S113130059F12D3219F4772009F103C0772009F43B
S113131068C0452D469546954695D601A40FB11D46
S1131320452D47708B0102C0000F111F4A95E2F74B
S1131330A8015C91452B4C93651459F0561410F494
S11313405394E7CF5A94E5CF31E004C077247394E3
S113135001C0712C0196BFCF772019F08E81806275
S11313608E83311103C08824839417C0F6019E0133
S11313702F5D3F4F8081809581932E173F07D1F7D2
S1131380F2CFE114F10429F0D7018C93F7013196DF
S11313907F019A94812C9920E9F0C5018DD197FDA4
S11313A017C0FC01FF2723E0F595E7952A95E1F79F
S11313B0EC0DFD1D208130E0AC014770552702C0C3
S11313C0359527954A95E2F720FDDBCFB501EED19F
S11313D0811089CFE114F10411F0D7011C92C801E6
S11313E015C0422F469546954695D601A40FB11DCA
S11313F0422F47708B0102C0000F111F4A95E2F77C
S1131400A8015C91452B4C93622EA4CFA0960FB6F5
S1131410F894DEBF0FBECDBFDF91CF911F910F9126
S1131420FF90EF90DF90CF90BF90AF909F908F9000
S11314307F906F905F9008955F926F927F928F92EA
S11314409F92AF92BF92CF92DF92EF92FF920F934F
S11314501F93CF93DF936C01EB015A01FC011782B8
S11314601682512CF601E380FE01E3FC8591E3FE34
S11314708191182FEF01882309F4E0C090E0F3D0A4
S1131480892B19F0C60159DEEDCF153241F4FE0166
S1131490E3FC1591E3FE1191EF01153271F4C601DD
S11314A00BD197FDC9C0412F50E09C01332724176D
S11314B03507C1F2B6017AD1C1C01A3239F4E3FC5E
S11314C01591E3FE1191EF0101E001C000E0F12C60
S11314D020ED210F2A3078F402606F2D70E080E057
S11314E090E040E203DEF62EFE01E3FC1591E3FEFC
S11314F01191EF01EDCF01FF03C0F11003C09EC0B5
S1131500FF24FA94183619F01C3651F010C0FE016D
S1131510E3FC1591E3FE1191EF01183641F40860E4
S11315200460FE01E3FC1591E3FE1191EF01112328
S113153009F484C0612F70E086EF90E09CD0892B81
S113154009F47CC000FD07C0F50180809180C501CD
S113155002965C0102C0812C912C1E3649F4F601DE
S11315604681578160E070E0202FC401B3DD7ACF5B
S11315701336A1F401FD02C0FF24F394C6019CD0EC
S113158097FD5AC08114910429F0F4018083C401A9
S113159001964C01FA94F110F1CF4AC01B3551F475
S11315A09E01A4016F2DC60168DEEC01892B09F0B0
S11315B03FC039C0C601C1DD97FD3EC01F3649F1A9
S11315C028F4143621F1193639F125C0133771F096
S11315D01537E9F020C08114910429F0F4016082E8
S11315E0C40101964C01FA94FF2059F0C60164D05D
S11315F03C0197FD06C037D0892B69F3B601C301BE
S1131600D5D081149104A1F0F401108211C00062BC
S113161003C0006101C00064202FA4016F2DC60126
S1131620A2DD811105C0F6018381807329F406C00F
S113163000FD18CF539416CF552019F0852D90E056
S113164002C08FEF9FEFDF91CF911F910F91FF9019
S1131650EF90DF90CF90BF90AF909F908F907F904E
S11316606F905F900895911118C1803219F08950DC
S11316708550D0F70895FC010590061621F000204E
S1131680D9F7C00108953197CF010895FC01059061
S1131690615070400110D8F7809590958E0F9F1F70
S11316A00895FC016150704001900110D8F78095B5
S11316B090958E0F9F1F0895CF93DF93EC012B819C
S11316C020FF33C026FF0AC02F7B2B838E819F818E
S11316D001969F838E838A8190E029C022FF0FC0E8
S11316E0E881F9818081082E000C990B009719F488
S11316F020622B831AC03196F983E8830EC0EA85F1
S1131700FB85099597FF09C02B81019611F080E2B2
S113171001C080E1822B8B8308C02E813F812F5F23
S11317203F4F3F832E83992702C08FEF9FEFDF91B6
S1131730CF9108950F931F93CF93DF93FB012381E0
S113174021FD03C08FEF9FEF2CC022FF16C04681FE
S11317505781248135814217530744F4A081B18114
S11317609D012F5F3F4F318320838C9326813781E6
S11317702F5F3F4F3783268314C08B01EC01FB019D
S11317800084F185E02D0995892BE1F6D8011696A0
S11317908D919C911797019617969C938E9316970B
S11317A0CE01DF91CF911F910F910895FB01238109
S11317B020FF12C026FD10C08F3F3FEF930761F05A
S11317C082832F7D20642383268137812150310930
S11317D037832683992708958FEF9FEF0895FA01A1
S11317E0AA27283051F1203181F1E8946F936E7F5C
S11317F06E5F7F4F8F4F9F4FAF4FB1E03ED0B4E04D
S11318003CD0670F781F891F9A1FA11D680F791F8D
S11318108A1F911DA11D6A0F711D811D911DA11D9E
S113182020D009F468943F912AE0269F11243019AE
S1131830305D3193DEF6CF010895462F4770405D49
S11318404193B3E00FD0C9F7F6CF462F4F70405DF8
S11318504A3318F0495D31FD4052419302D0A9F753
S1131860EACFB4E0A6959795879577956795BA954D
S1131870C9F700976105710508959B01AC010A2E13
S113188006945795479537952795BA95C9F7620FEA
S1131890731F841F951FA01D0895992788270895F5
S11318A0DC01CB01FC01F999FECF06C0F2BDE1BD1C
S11318B0F89A319600B40D9241505040B8F708950B
S11318C0A8E1B0E042E050E0EDCFDC01CB0102C082
S11318D02D9105D041505040D8F70895262FF999FD
S11318E0FECF1FBA92BD81BD20BD0FB6F894FA9AFF
S11318F0F99A0FBE01960895F1DF272FF0CFF894DF
S1051900FFCF13
S11319020000484214000A0025640053696C76659D
S11319127200313233004E756D62657220706C61F3
S113192274653A200020596F7520656E746572657E
S1131932643A200042656C6F772031307972733AD1
S1131942200041626F76652031307972733A20004B
S1131952546F757269737473207265676973746501
S1131962726564207375636365737366756C6C79F1
S11319722E20446174612073746F72656420696EF1
S113198220454550524F4D2E0D0A00546F75726911
S113199273747320696E20746865207061726B3A87
S11319A20D0A004361727320696E207468652070A9
S11319B261726B3A004E756D626572206F662064C7
S11319C272697665727320696E207468652070612D
S11319D2726B3A2025640A004E756D626572206F3F
S11319E26620626F74746C657320696E2074686516
S11319F2206672696467653A20252E32660A004CB5
S1131A026F67676564206F75742E0D0A00496E76E0
S1131A12616C69642063686F6963652E20506C652C
S1131A226173652074727920616761696E2E0A00A0
S1131A32092057656C636F6D6520746F205175655D
S1131A42656E20456C697A6162657468204E6174C2
S1131A52696F6E616C207061726B2E0D0A00506C9E
S1131A6265617365204C6F67696E20746F20636FC4
S1131A726E74696E75652E0D0A00456E746572206A
S1131A82796F757220757365726E616D653A2000A7
S1131A92456E74657220796F757220706173737705
S1131AA26F72643A20004C6F67696E2073756363CA
S1131AB265737366756C2E0D0A00496E76616C69E6
S1131AC26420757365726E616D65206F722070613A
S1131AD27373776F72642E20506C65617365207422
S1131AE2727920616761696E2E0D0A0043686F6F17
S1131AF2736520616E206F7074696F6E3A0D0A000F
S1131B02312E20526567697374657220546F757241
S1131B12697374732E0D0A00322E20546F75726924
S1131B2273747320696E20746865207061726B2E01
S1131B320D0A00332E204361727320696E2074688B
S1131B4265207061726B2E0D0A00342E20546F745E
S1131B52616C206D6F6E657920636F6C6C65637464
S1131B62656420627920746865207061726B2E0D41
S1131B720A00352E204E756D626572206F662064F0
S1131B8272697665727320696E207468652070616B
S1131B92726B2E0D0A00362E204E756D6265722010
S1131BA26F6620626F74746C657320696E2074684A
S1131BB265206672696467652E0D0A00372E20520D
S1131BC265706C656E697368206672696467652EF8
S1131BD20D0A00382E20436865636B206966207005
S1131BE261726B2069732066756C6C2E0D0A003964
S1131BF22E204C6F676F75742E0D0A00456E746546
S1131C027220616E206F7074696F6E2E0D0A00521D
S1131C126567697374726174696F6E00646F6E656F
S1131C222E0047617465206F70656E2E00476174E3
S1131C326520636C6F73696E672E00426F74746CF7
S1131C426520636F73747300554758313530300023
S1131C52426F74746C65733A2000546F74616C2023
S1131C62436F73743A005547582E0050726573736C
S1131C7220313A4163636570740050726573732056
S1131C82303A205175697400427965204279652E93
S10D1C92205468616E6B732E00008D
S9030000FC
