:1000000077C0000075C7000091C000008FC00000DD
:100010008DC000008BC0000089C0000087C00000B8
:1000200085C0000083C0000081C000007FC00000C8
:100030007DC000007BC0000079C0000077C00000D8
:1000400075C0000073C0000071C000006FC00000E8
:100050006DC000006BC0000069C0000067C00000F8
:1000600065C0000063C0000061C000005FC0000008
:100070005DC000005BC0000059C0000057C0000018
:1000800055C0000053C0000051C000004FC0000028
:100090004DC000004BC0000049C0000047C0000038
:1000A00045C0000043C0000041C000003FC0000048
:1000B0003DC000003BC0000039C0000037C0000058
:1000C00035C0000033C0000031C000002FC0000068
:1000D0002DC000002BC0000029C0000027C0000078
:1000E00025C000006364696E6F70737578585B009B
:1000F00011241FBECFEFD1E2DEBFCDBF16E0A0E0DE
:10010000B2E0E8E6FFE100E00BBF02C007900D920D
:10011000A63EB107D9F727E0A6EEB6E001C01D92D2
:10012000A930B207E1F7C2D60C94B20F69CF809123
:100130000D0290910E020C94930F089580910B0282
:1001400090910C020C94930F089580910702909166
:1001500008020C94930F0895DC01FC01019000202B
:10016000E9F731979F01281B390B2150310909C04C
:10017000FD01E20FF31F9081911105C01082215003
:1001800031093323ACF7CD0108951092C50083E304
:100190008093C40088E18093C10086E08093C20010
:1001A0000895DC01FC0101900020E9F73197AF01CF
:1001B000481B590B20E030E00CC09091C00095FF27
:1001C000FCCFFD01E20FF31F90819093C6002F5FDB
:1001D0003F4F241735078CF308958091C000882382
:1001E000E4F78091C60008950F931F93CF93DF9398
:1001F000CDB7DEB764970FB6F894DEBF0FBECDBFA4
:100200009F938F9382E493E09F938F938E010F5F70
:100210001F4F1F930F930E945109C801C2DF0F9017
:100220000F900F900F900F900F9064960FB6F89468
:10023000DEBF0FBECDBFDF91CF911F910F9108950B
:10024000CF93DF93EB016FE072E09DD7892B49F4E8
:1002500066E172E0CE0197D7892B31F080E090E023
:1002600005C080E090E002C081E090E0DF91CF9196
:100270000895CF92DF92EF92FF920F931F93CF9347
:100280006C017B0100E010E00EC0A7DFC82F90E0FA
:1002900088DFCA3069F0CD3059F0F601E00FF11F68
:1002A000C0830F5F1F4FC7010197081719076CF331
:1002B000F601E00FF11F1082CF911F910F91FF9077
:1002C000EF90DF90CF9008950F931F93CF93DF931C
:1002D000CDB7DEB766970FB6F894DEBF0FBECDBFC1
:1002E00064E170E08E010F5F1F4FC801C2DFCE01D5
:1002F00045969F938F9382E493E09F938F931F93F0
:100300000F93FDD70F900F900F900F900F900F90BD
:100310008D899E8966960FB6F894DEBF0FBECDBF5D
:10032000DF91CF911F910F910895CF9356DFC82F82
:100330008BE294E036DF8C2FCF910895CF93DF933B
:1003400000D0CDB7DEB78AE192E09F938F9353D769
:10035000CE0101969F938F9382E493E09F938F93B6
:100360008DD769817A810F900F900F900F900F9029
:100370000F9016161706E4F4072E000C880B990B45
:1003800056D69B01AC0160910102709102028091EE
:10039000030290910402E5D560930102709302027A
:1003A00080930302909304028DE492E037D703C058
:1003B00080E692E033D70F900F90DF91CF910895B0
:1003C0008091090290910A020E94930F9093EC068B
:1003D0008093EB06893C910514F081E0089580E05C
:1003E00008952091E9063091EA0612161306DCF40E
:1003F00060910502709106024FE050E00E94980F54
:100400008091E9069091EA0601969093EA0680931E
:10041000E90680910502909106020F9690930602DC
:1004200080930502089560910502709106024FE0E5
:1004300050E00E94980F8091E9069091EA0601969B
:100440009093EA068093E906809105029091060256
:100450000F969093060280930502089580910502FD
:10046000909106028932910508F00F970895CF9276
:10047000DF92EF92FF920F931F93CF93DF93CDB74D
:10048000DEB72F970FB6F894DEBF0FBECDBF8BE758
:1004900092E087DE8091E9069091EA06A5DE8BE284
:1004A00094E07FDE8CE892E07CDE8BE294E079DE03
:1004B000D5DF6C012091E9063091EA0641EF420355
:1004C0008001439F100D1124809105029091060236
:1004D000080F191FEE24E394F12C17C04FE050E0F1
:1004E000B801CE0101960E94830FC7017DDE84ED25
:1004F00093E057DECE01019654DE8BE294E051DEAC
:100500008FEFE81AF80A015F1F4FC016D10630F7C7
:100510002F960FB6F894DEBF0FBECDBFDF91CF91FF
:100520001F910F91FF90EF90DF90CF900895CF93A0
:10053000DF93FDDD28E833E1829FE001839FD00D4A
:10054000929FD00D1124FADD20E137E2AC01429FE9
:10055000C001439F900D529F900D1124C80FD91FC9
:100560008DEA92E01EDECE013FDE8BE294E019DEE2
:10057000DF91CF9108950F931F93CF93DF93EC01F9
:100580008B0105C06FEFCE010E94A10F2196C0170D
:10059000D107C0F3DF91CF911F910F9108955EDFD6
:1005A000BC0180E090E0E7DF86EC92E0FADD8BE2D0
:1005B00094E0F7CD0895BC0180910D0290910E0258
:1005C0000C94AF0F0895BC0180910B0290910C0226
:1005D0000C94AF0F0895BC0180910702909108021E
:1005E0000C94AF0F089580E090E0E5DF80E090E0AC
:1005F000EADF80E090E0EFCF0895CF92DF92EF92B4
:10060000FF920F931F93CF93DF93CDB7DEB7A497DD
:100610000FB6F894DEBF0FBECDBF87EE92E0C1DD0E
:100620006FE070E0CE01019624DE8BE294E0B9DD4C
:100630002091E9063091EA0641EF42038001439F91
:10064000100D11248091050290910602080F191FC8
:1006500005DF8017910708F469C04FE050E0B8014A
:10066000CE0140960E94830F62E073E0CE01409677
:1006700087D598A38F8FEE24E394F12C13C062E00A
:1006800073E080E090E07CD5F701EE0FFF1F21E0E2
:1006900030E02C0F3D1FE20FF31F978F868F3FEF47
:1006A000E31AF30A892B59F7EF8CF8A0CE010196D3
:1006B00053DDB70168D5892B69F58091E9069091E2
:1006C000EA0601979093EA068093E906B801615F14
:1006D0007F4FC80150DF2BDD8C01E9A0FAA0C701D4
:1006E00032D59801281B390BC90165DF27DD6C0164
:1006F0000BA11CA1C80127D59601281B390BC901E4
:1007000062DFC70120D57C01C8011DD58E0D9F1D5C
:1007100062DF0CC084E093E044DDCE01019641DD50
:1007200089E293E03EDD8BE294E03BDDA4960FB6D8
:10073000F894DEBF0FBECDBFDF91CF911F910F9117
:10074000FF90EF90DF90CF900895CF92DF92EF92DD
:10075000FF920F931F93CF93DF93CDB7DEB72F9701
:100760000FB6F894DEBF0FBECDBF7B018A011F9389
:100770004F93FF926F939F938F938CE393E09F939C
:100780008F93CE0101966C019F938F938AD5C601FA
:1007900028DECDDC8E0D9F1D0EDFD0DC800F911F7B
:1007A00012DFD3DC800F911F8E0D9F1D14DF0FB65B
:1007B000F894DEBF0FBECDBF2F960FB6F894DEBF04
:1007C0000FBECDBFDF91CF911F910F91FF90EF90A2
:1007D000DF90CF90089584B3886084BB89EF90E068
:1007E0000197F1F700C0000084B3877F84BB89EFD5
:1007F00090E00197F1F700C00000089582B1886091
:1008000082B989EF90E00197F1F700C0000082B152
:10081000877F82B989EF90E00197F1F700C000006F
:1008200008958093020184B3826084BB84B38B7F7C
:1008300084BBD1CF089581BB82B1826082B982B17D
:100840008B7F82B9DBCF08958093020184B38D7FC3
:1008500084BB84B38B7F84BBBECF089581BB82B140
:100860008D7F82B982B18B7F82B9C8CF08958FE026
:10087000EBDF8FE3E9DF81E0E7CF08958FE0EEDF84
:100880008FE3ECDF81E0EACF0895EF92FF920F93C0
:100890001F93CF93DF937C0181E0D6DFF7010190B6
:1008A0000020E9F731978F010E191F09C0E0D0E051
:1008B00006C0F701EC0FFD1F8081B3DF2196C01742
:1008C000D107BCF3DF91CF911F910F91FF90EF9073
:1008D0000895EF92FF920F931F93CF93DF937C01C4
:1008E000FC0101900020E9F731978F01081B190BDB
:1008F000C0E0D0E006C0F701EC0FFD1F808191DF62
:100900002196C017D107BCF3DF91CF911F910F91B2
:10091000FF90EF900895EF92FF920F931F93CF9364
:10092000DF937C0181E09ADFF70101900020E9F775
:1009300031978F010E191F09C0E0D0E006C0F70102
:10094000EC0FFD1F808177DF2196C017D107BCF324
:10095000DF91CF911F910F91FF90EF9008958BEF52
:1009600080930B018091090183FD07C081E090E035
:10097000909302078093010715C08091090184FDBF
:1009800007C084E090E090930207809301070AC0BB
:100990008091090185FD06C087E090E090930207F1
:1009A000809301078DEF80930B018091090183FDF6
:1009B00007C082E090E090930207809301071EC079
:1009C0008091090184FD07C085E090E090930207C3
:1009D0008093010713C08091090185FD07C088E05D
:1009E00090E0909302078093010708C0809109016D
:1009F00086FD04C010920207109201078EEF8093CB
:100A00000B018091090183FD07C083E090E0909382
:100A100002078093010715C08091090184FD07C07A
:100A200086E090E090930207809301070AC08091CE
:100A3000090185FD06C089E090E09093020780934C
:100A4000010780910107909102070895CF92DF92EC
:100A5000EF92FF920F931F93CF93DF93CDB7DEB743
:100A600028970FB6F894DEBF0FBECDBF85E493E0A4
:100A70000CDF2FE34DE083E0215040408040E1F760
:100A800000C000008AE593E000DF00E010E002C053
:100A900066DF8C0101151105D9F380E3800FC1DEFB
:100AA0009FE926E841E0915020404040E1F700C036
:100AB00000008CED95E0089F7001099FF00C189FD5
:100AC000F00C1124FF92EF9282E493E09F938F93B6
:100AD000CE0101966C019F938F93E3D384E693E05C
:100AE000D4DEC601F6DE80E793E0CFDE80EDACDE3B
:100AF0008FE793E0EEDE0F900F900F900F900F9026
:100B00000F907FC08DE893E0C0DE20E030E01CC095
:100B1000E8E0F1E08081816080839FE34DE083E045
:100B2000915040408040E1F700C0000080818E7FFE
:100B300080839FE34DE083E0915040408040E1F7A7
:100B400000C000002F5F3F4F233031050CF39FE7BB
:100B50002AE146E0915020404040E1F700C000000B
:100B600020E030E01CC0E8E0F1E08081826080831A
:100B70008FE79AE146E0815090404040E1F700C0A5
:100B8000000080818D7F80838FE79AE146E081506D
:100B900090404040E1F700C000002F5F3F4F20171A
:100BA00031070CF38091ED069091EE06E80EF91EE8
:100BB000F092EE06E092ED06B801110F880B990B4A
:100BC00036D29B01AC0160910102709102028091CA
:100BD000030290910402C4D1609301027093020257
:100BE000809303029093040211C0892B51F487E98A
:100BF00093E04BDE87E893E10197F1F700C0000036
:100C000005C0ADDE8930910581F77CCF28960FB6FF
:100C1000F894DEBF0FBECDBFDF91CF911F910F9132
:100C2000FF90EF90DF90CF9008958533910509F400
:100C3000AFC084F48233910509F48AC01CF4C197D3
:100C4000F9F0CEC08333910509F49EC0C49709F42E
:100C50009DC0C6C08833910509F4AAC044F4863308
:100C6000910509F4A1C0C79709F4A0C0B9C08933A0
:100C7000910509F4ADC08033914309F4ABC0B0C015
:100C80009FDB882321F08FEA93E045CE089589EB1E
:100C900093E087DA6AE070E083EF96E0EADA88ECC6
:100CA00093E07FDA83EF96E07CDA8BE294E079DA06
:100CB00087ED93E076DA08DB9093F2068093F106F5
:100CC00088EC93E06EDA8091F1069091F2068CDA6E
:100CD0008BE294E066DA85EE93E063DAF5DA9093DE
:100CE000F0068093EF0688EC93E05BDA8091EF06E4
:100CF0009091F00679DA8BE294E053DA4091EF06B6
:100D00005091F0066091F1067091F20683EF96E043
:100D10001CDD83EF93E045DA8EE294E0FCDD8FE7A3
:100D20009AE126E0815090402040E1F700C00000A9
:100D30008BE394E0F0DD8FEB97E229E08150904067
:100D40002040E1F700C0000088E494E0E4CD08957D
:100D50008DE594E026DA87ED93E023DAE8D944DAEA
:100D60008BE294E01EDA85EE93E01BDAE7D93CDAF9
:100D70008BE294E016DA85E794E013DAE6D934DA08
:100D80008BE294E00ECA089572CB0895D0CB0895FB
:100D90008DE794E006DA8091E9069091EA0624DA7C
:100DA0008BE294E0FEC9089551CE0895C7CA089514
:100DB00081EA94E0F6D904DB882319F088EA93E00D
:100DC00002C08CEA93E0EDD98BE294E0EAC9089581
:100DD00014CC08951092E80680EB94E0E2C90895DF
:100DE0008EEB94E0DEC90895CF93DF93CDB7DEB7E5
:100DF000A8970FB6F894DEBF0FBECDBF81EE94E08A
:100E0000D0D98FE095E0CDD910E026C08BE295E0F7
:100E1000C8D964E170E0CE0101962BDA8BE294E050
:100E2000C0D981E495E0BDD964E170E0CE0145967A
:100E300020DA8BE294E0B5D9BE016B5E7F4FCE0124
:100E40000196FED9892B29F087E595E0AAD911E012
:100E500003C08BE695E0A5D91123C1F28DE995E099
:100E6000A0D981EB95E09DD989EC95E09AD984EEE3
:100E700095E097D98BEF95E094D983E296E091D9EC
:100E800087E496E08ED98DE696E08BD984E896E0EB
:100E900088D980EA96E085D987EB96E082D985ECFF
:100EA00096E07FD942DA90E0C0DED8CF87E8809321
:100EB0000A01CFEFC0930101C3BBC0930701C0BBC0
:100EC000C1B9DCDCD4DC61D98EDB78948DB3816070
:100ED0008DBB85B7826085BF1AB8C4B98BB18160FC
:100EE0008BB980910002882311F059DB7CDB7CDF19
:100EF0001F920F920FB60F9211240BB60F922F93E1
:100F00003F934F935F936F937F938F939F93AF9391
:100F1000BF93EF93FF9385B1806885B92FE986E889
:100F200091E0215080409040E1F700C0000085B181
:100F30008F7785B988ED96E0EEDCFF91EF91BF9158
:100F4000AF919F918F917F916F915F914F913F9161
:100F50002F910F900BBE0F900FBE0F901F90189502
:100F60005058BB27AA270ED0B4C0A5D030F0AAD0C5
:100F700020F031F49F3F11F41EF49AC00EF4E09576
:100F8000E7FB90C0E92FB6D080F3BA17620773076A
:100F90008407950718F071F49EF5CEC00EF4E09525
:100FA0000B2EBA2FA02D0B01B90190010C01CA0123
:100FB000A0011124FF27591B99F0593F50F4503ECE
:100FC00068F11A16F040A22F232F342F4427585FC0
:100FD000F3CF469537952795A795F0405395C9F7D8
:100FE0007EF41F16BA0B620B730B840BBAF0915090
:100FF000A1F0FF0FBB1F661F771F881FC2F70EC02F
:10100000BA0F621F731F841F48F487957795679501
:10101000B795F7959E3F08F0B3CF9395880F08F0EA
:101020009927EE0F979587950895E89409C097FB47
:101030003EF490958095709561957F4F8F4F9F4FAF
:101040009923A9F0F92F96E9BB279395F6958795F3
:1010500077956795B795F111F8CFFAF4BB0F11F4B6
:1010600060FF1BC06F5F7F4F8F4F9F4F16C088235D
:1010700011F096E911C0772321F09EE8872F762F93
:1010800005C0662371F096E8862F70E060E02AF0D4
:101090009A95660F771F881FDAF7880F96958795C0
:1010A00097F9089597F99F6780E870E060E00895E8
:1010B0009FEF80EC089500240A9416161706180670
:1010C0000906089500240A9412161306140605064C
:1010D0000895092E0394000C11F4882352F0BB0FDD
:1010E00040F4BF2B11F460FF04C06F5F7F4F8F4F40
:1010F0009F4F089557FD9058440F551F59F05F3F7B
:1011000071F04795880F97FB991F61F09F3F79F029
:1011100087950895121613061406551FF2CF4695AB
:10112000F1DF08C0161617061806991FF1CF86952D
:101130007105610508940895E894BB276627772711
:10114000CB0197F90895FC0188279927E89421910C
:101150002032E9F3293010F02E30C8F32B3239F069
:101160002D3231F4689403C03ED0820F911D21913D
:1011700020532A30C8F31EF4909581959F4F08950F
:1011800046EE56E009C0FB01DC018D91019080190B
:101190000110D9F3990B0895FA01A191B08100973C
:1011A00019F41097E1F0CD01DC01CD010D90002084
:1011B00011F4C00113C0FB012191222319F0201565
:1011C000D9F7F3CFFB012191201519F41E92119646
:1011D00006C02223C1F70D900020A1F7D001FA012B
:1011E000A193B08308957AE0979F902D879F802DDB
:1011F000910D11240895CF93DF93CDB7DEB7AE01E3
:101200004B5F5F4FFA0161917191AF0180910507CA
:101210009091060795D0DF91CF9108950F931F937A
:10122000CF93DF93E0910507F0910607238121FF1B
:101230001BC08C01D0E0C0E0F80181918F0160916A
:10124000050770910607DB011896ED91FC9119973F
:10125000882331F00995892B79F3DFEFCFEFECCFBD
:101260008AE00995892B19F08FEF9FEF02C08D2F2F
:101270009C2FDF91CF911F910F910895CF93DF9312
:10128000CDB7DEB7AE014B5F5F4FFA01619171914F
:10129000AF01809103079091040701D4DF91CF91B2
:1012A00008950F931F93CF93DF93CDB7DEB72E979B
:1012B0000FB6F894DEBF0FBECDBF0D891E8986E044
:1012C0008C831A8309838FEF9FE79E838D83AE0102
:1012D000475E5F4F6F89788DCE01019631D0EF81E7
:1012E000F885E00FF11F10822E960FB6F894DEBF3E
:1012F0000FBECDBFDF91CF911F910F910895CF9376
:10130000DF93CDB7DEB72E970FB6F894DEBF0FBED2
:10131000CDBF85E08C838B899C899A838983AE01BC
:10132000495E5F4F6D897E89CE010196B8D32E96B6
:101330000FB6F894DEBF0FBECDBFDF91CF910895F9
:101340002F923F924F925F926F927F928F929F92D5
:10135000AF92BF92CF92DF92EF92FF920F931F93C3
:10136000CF93DF93CDB7DEB72B970FB6F894DEBFE0
:101370000FBECDBF6C017B018A01FC011782168272
:10138000838181FFBFC1CE0101963C01F6019381AB
:10139000F70193FD859193FF81917F01882309F4E3
:1013A000ADC1853239F493FD859193FF81917F0121
:1013B000853221F4B60190E0F0D4E8CF912C212CB5
:1013C000312CFFE1F315D8F08B3279F038F480320C
:1013D00079F08332A1F4232D20611DC08D3261F09C
:1013E000803369F4232D216016C0832D8260382E4E
:1013F000E32DE4603E2E2AC0F32DF8601DC037FCBB
:101400002DC020ED280F2A3040F08E32B9F436FC82
:1014100075C1232D2064322E19C036FE06C08AE025
:10142000989E200D1124922E11C0EAE02E9E200DD0
:101430001124222EF32DF0623F2E08C08C3621F4A9
:10144000832D8068382E02C0883641F4F70193FD61
:10145000859193FF81917F018111B3CF982F9F7D5B
:101460009554933028F40C5F1F4F9FE399830DC070
:10147000833631F0833771F0833509F055C020C0D1
:10148000F801808189830E5F1F4F88248394912CFB
:10149000530112C02801F2E04F0E511CF801A08048
:1014A000B18036FE03C0692D70E002C06FEF7FEFA0
:1014B000C5012AD44C018201F32DFF773F2E15C0C0
:1014C000280122E0420E511CF801A080B18036FEB6
:1014D00003C0692D70E002C06FEF7FEFC50109D432
:1014E0004C01F32DF0683F2E820133FC19C0822D90
:1014F00090E088169906A0F4B60180E290E04DD401
:101500002A94F5CFF50137FC859137FE81915F0173
:10151000B60190E042D421102A9421E0821A910869
:101520008114910479F7E1C0843611F0893639F5D8
:10153000F80137FE07C060817181828193810C5F61
:101540001F4F08C060817181072E000C880B990B1A
:101550000E5F1F4FF32DFF763F2E97FF09C090952A
:101560008095709561957F4F8F4F9F4FF0683F2E0C
:101570002AE030E0A30166D4882E861844C085375F
:1015800031F4232D2F7EB22E2AE030E025C0932D9A
:10159000997FB92E8F36C1F018F4883579F0AEC036
:1015A000803719F0883721F0A9C0E92FE061BE2EFD
:1015B000B4FE0DC0FB2DF460BF2E09C034FE0AC07E
:1015C000292F2660B22E06C028E030E005C020E1B9
:1015D00030E002C020E132E0F801B7FE07C06081D0
:1015E0007181828193810C5F1F4F06C06081718180
:1015F00080E090E00E5F1F4FA30124D4882E861850
:10160000FB2DFF773F2E36FE0DC0232D2E7FA22E01
:10161000891458F434FE0BC032FC09C0832D8E7E31
:10162000A82E05C0B82CA32C03C0B82C01C0B92C1F
:10163000A4FE0FC0FE01E80DF11D8081803321F46E
:101640009A2D997EA92E09C0A2FE06C0B394B39428
:1016500004C08A2D867809F0B394A3FC10C0A0FEC4
:1016600006C0B21480F4280C922C9B180DC0B21442
:1016700058F4B60180E290E090D3B394F8CFB2145E
:1016800018F42B1802C0982C212CA4FE0FC0B60110
:1016900080E390E082D3A2FE16C0A1FC03C088E7DD
:1016A00090E002C088E590E0B6010CC08A2D8678F3
:1016B00051F0A1FE02C08BE201C080E2A7FC8DE2E6
:1016C000B60190E06AD3891430F4B60180E390E06B
:1016D00064D39A94F8CF8A94F301E80DF11D8081C8
:1016E000B60190E05AD38110F6CF222009F44ECEF5
:1016F000B60180E290E051D32A94F7CFF6018681BB
:10170000978102C08FEF9FEF2B960FB6F894DEBF44
:101710000FBECDBFDF91CF911F910F91FF90EF9042
:10172000DF90CF90BF90AF909F908F907F906F9001
:101730005F904F903F902F90089520FD09C0FC01CD
:1017400023FD05C022FF02C073836283518340835F
:10175000089544FD17C046FD17C0AB01BC01DA0176
:10176000FB01AA0FBB1FEE1FFF1F1094D1F74A0FFA
:101770005B1F6E1F7F1FCB01BA01660F771F881F8B
:10178000991F09C033E001C034E0660F771F881F3E
:10179000991F3150D1F7620F711D811D911D089560
:1017A0000F931F93CF93DF938C01C801B8D2EC0144
:1017B00097FD06C08BD2892BC1F7B801CE0129D382
:1017C000CE01DF91CF911F910F9108958F929F923B
:1017D000AF92BF92EF92FF920F931F93CF93DF933D
:1017E0008C01D62F7A01B22E9AD29C0133272B324C
:1017F000310531F02D32310559F48B2D8068B82E2A
:10180000D15011F480E061C0C80189D297FDFACFB0
:10181000CB2DCD7F2B2D2073F9F48033E9F4AA244E
:10182000AA94AD0E09F43EC0C80179D297FD3AC022
:101830009C012F7D33272835310541F4C264D250F5
:1018400089F1C8016CD297FF07C02CC0B6FE02C058
:10185000C26001C0C261DA2D812C912C540120EDAF
:10186000280F283078F0C4FF03C0B801D2D217C0C7
:101870002A3040F0C6FFF9CF2F7D3FEE320F3630D1
:10188000A0F727504C2FC501B40163DF4B015C0169
:10189000C260D15051F0C80142D297FFE0CFC1FDE4
:1018A00004C0B0CF812C912C5401C7FF08C0B09464
:1018B000A09490948094811C911CA11CB11C2C2F8D
:1018C000B501A401C70139DF81E0DF91CF911F91FC
:1018D0000F91FF90EF90BF90AF909F908F900895E1
:1018E0005F926F927F928F929F92AF92BF92CF92B0
:1018F000DF92EF92FF920F931F93CF93DF93CDB7B9
:10190000DEB7A0970FB6F894DEBF0FBECDBF5C0167
:10191000962E7A01F9018E010F5F1F4F680180E258
:10192000D8011D928A95E9F7D50113968C9080E035
:1019300090E0612C712C30E061E070E083FC259137
:1019400083FE21918F01522E211103C080E090E08F
:1019500090C02E3511F4009751F1432F50E04817F5
:1019600059073CF42D3559F12D3219F4772009F13E
:1019700003C0772009F468C0452D469546954695E5
:10198000D601A40FB11D452D47708B0102C0000F79
:10199000111F4A95E2F7A8015C91452B4C93651401
:1019A00059F0561410F45394E7CF5A94E5CF31E030
:1019B00004C07724739401C0712C0196BFCF7720A7
:1019C00019F08E8180628E83311103C08824839444
:1019D00017C0F6019E012F5D3F4F80818095819356
:1019E0002E173F07D1F7F2CFE114F10429F0D70108
:1019F0008C93F70131967F019A94812C9920E9F01C
:101A0000C5018DD197FD17C0FC01FF2723E0F59597
:101A1000E7952A95E1F7EC0DFD1D208130E0AC0142
:101A20004770552702C0359527954A95E2F720FD66
:101A3000DBCFB501EED1811089CFE114F10411F0B3
:101A4000D7011C92C80115C0422F46954695469570
:101A5000D601A40FB11D422F47708B0102C0000FA9
:101A6000111F4A95E2F7A8015C91452B4C93622E19
:101A7000A4CFA0960FB6F894DEBF0FBECDBFDF9106
:101A8000CF911F910F91FF90EF90DF90CF90BF907B
:101A9000AF909F908F907F906F905F9008955F922E
:101AA0006F927F928F929F92AF92BF92CF92DF926E
:101AB000EF92FF920F931F93CF93DF936C01EB0193
:101AC0005A01FC0117821682512CF601E380FE01B7
:101AD000E3FC8591E3FE8191182FEF01882309F43F
:101AE000E0C090E0F3D0892B19F0C60159DEEDCFAC
:101AF000153241F4FE01E3FC1591E3FE1191EF0173
:101B0000153271F4C6010BD197FDC9C0412F50E0C9
:101B10009C01332724173507C1F2B6017AD1C1C021
:101B20001A3239F4E3FC1591E3FE1191EF0101E063
:101B300001C000E0F12C20ED210F2A3078F4026082
:101B40006F2D70E080E090E040E203DEF62EFE01B3
:101B5000E3FC1591E3FE1191EF01EDCF01FF03C00E
:101B6000F11003C09EC0FF24FA94183619F01C36F9
:101B700051F010C0FE01E3FC1591E3FE1191EF015D
:101B8000183641F408600460FE01E3FC1591E3FEA1
:101B90001191EF01112309F484C0612F70E084EEEC
:101BA00090E09CD0892B09F47CC000FD07C0F501B2
:101BB00080809180C50102965C0102C0812C912C2D
:101BC0001E3649F4F6014681578160E070E0202F0F
:101BD000C401B3DD7ACF1336A1F401FD02C0FF24A6
:101BE000F394C6019CD097FD5AC08114910429F04A
:101BF000F4018083C40101964C01FA94F110F1CFF5
:101C00004AC01B3551F49E01A4016F2DC60168DE48
:101C1000EC01892B09F03FC039C0C601C1DD97FD39
:101C20003EC01F3649F128F4143621F1193639F136
:101C300025C0133771F01537E9F020C081149104E5
:101C400029F0F4016082C40101964C01FA94FF204E
:101C500059F0C60164D03C0197FD06C037D0892BEE
:101C600069F3B601C301D5D081149104A1F0F40148
:101C7000108211C0006203C0006101C00064202F07
:101C8000A4016F2DC601A2DD811105C0F60183817B
:101C9000807329F406C000FD18CF539416CF552049
:101CA00019F0852D90E002C08FEF9FEFDF91CF916B
:101CB0001F910F91FF90EF90DF90CF90BF90AF906A
:101CC0009F908F907F906F905F900895911118C1B1
:101CD000803219F089508550D0F70895FC010590A5
:101CE000061621F00020D9F7C00108953197CF01E1
:101CF0000895FC010590615070400110D8F780955F
:101D000090958E0F9F1F0895FC01615070400190C7
:101D10000110D8F7809590958E0F9F1F0895CF934F
:101D2000DF93EC012B8120FF33C026FF0AC02F7BFD
:101D30002B838E819F8101969F838E838A8190E081
:101D400029C022FF0FC0E881F9818081082E000C94
:101D5000990B009719F420622B831AC03196F983EE
:101D6000E8830EC0EA85FB85099597FF09C02B81A2
:101D7000019611F080E201C080E1822B8B8308C0C4
:101D80002E813F812F5F3F4F3F832E83992702C0D3
:101D90008FEF9FEFDF91CF9108950F931F93CF9314
:101DA000DF93FB01238121FD03C08FEF9FEF2CC048
:101DB00022FF16C04681578124813581421753077F
:101DC00044F4A081B1819D012F5F3F4F3183208377
:101DD0008C93268137812F5F3F4F3783268314C032
:101DE0008B01EC01FB010084F185E02D0995892B25
:101DF000E1F6D80116968D919C911797019617964A
:101E00009C938E931697CE01DF91CF911F910F91E6
:101E10000895FB01238120FF12C026FD10C08F3FD3
:101E20003FEF930761F082832F7D20642383268117
:101E300037812150310937832683992708958FEF01
:101E40009FEF0895FA01AA27283051F1203181F13E
:101E5000E8946F936E7F6E5F7F4F8F4F9F4FAF4FB2
:101E6000B1E03ED0B4E03CD0670F781F891F9A1FC5
:101E7000A11D680F791F8A1F911DA11D6A0F711D79
:101E8000811D911DA11D20D009F468943F912AE085
:101E9000269F11243019305D3193DEF6CF0108956D
:101EA000462F4770405D4193B3E00FD0C9F7F6CF9E
:101EB000462F4F70405D4A3318F0495D31FD405266
:101EC000419302D0A9F7EACFB4E0A69597958795FC
:101ED00077956795BA95C9F70097610571050895DB
:101EE0009B01AC010A2E0694579547953795279587
:101EF000BA95C9F7620F731F841F951FA01D08951F
:101F0000992788270895DC01CB01FC01F999FECFC0
:101F100006C0F2BDE1BDF89A319600B40D92415071
:101F20005040B8F70895A8E1B0E042E050E0EDCFAE
:101F3000DC01CB0102C02D9105D041505040D8F7B3
:101F40000895262FF999FECF1FBA92BD81BD20BDFD
:101F50000FB6F894FA9AF99A0FBE01960895F1DF38
:081F6000272FF0CFF894FFCF0A
:101F68000100004842320028001E0014000A0053F5
:101F7800696C7665720031323300456E7465722083
:101F8800746865206E756D626572206F6620626F79
:101F980074746C657320746F2061646420746F209E
:101FA800746865206672696467653A2000526570D6
:101FB8006C656E697368696E6720646F6E652E0064
:101FC800496E76616C6964206E756D626572206F0A
:101FD8006620626F74746C65732E004E756D626551
:101FE80072206F6620636172733A20004E756D62CD
:101FF800657220706C617465202D204368696C647B
:1020080072656E202D204164756C747300546F7472
:10201800616C20616D6F756E7420636F6C6C6563A5
:102028007465643A2000526573657474696E67203C
:10203800636F6E74726F6C6C657220737563636521
:10204800737366756C2E0045786974696E672063D2
:102058006172206E756D62657220706C6174653A8C
:1020680020002D0054686520656E747279206F66B3
:10207800206361722077697468206E756D6265727D
:1020880020706C6174653A200020776173206E6F50
:1020980074207265636F726465642E0025732D2544
:1020A800642D256400426F74746C6520636F7374CB
:1020B80073205547583135303000426F74746C6561
:1020C800733A2000546F74616C20436F73743A0044
:1020D800507265737320393A4163636570740050B8
:1020E8007265737320303A205175697400416363D7
:1020F80065707465642E00427965204279652E20EA
:102108005468616E6B732E00796573006E6F007092
:1021180061726B2066756C6C004E756D626572201D
:10212800706C6174653A200020596F7520656E7473
:10213800657265643A200042656C6F7720313079AA
:1021480072733A200041626F76652031307972737C
:102158003A2000546F7572697374732072656769E9
:1021680073746572656420737563636573736675EC
:102178006C6C792E20446174612073746F7265648D
:1021880020696E20454550524F4D2E0D0A0043617F
:10219800722070617373696E672E004761746520E1
:1021A800636C6F73696E6700517565656E20456C69
:1021B800697A6162657468204E2E502E00546F75DE
:1021C800726973747320696E207468652070617217
:1021D8006B3A0D0A00546F74616C3A20004E756DAD
:1021E800626572206F662064726976657273206911
:1021F8006E7369646520746865207061726B3A203B
:10220800004973207061726B2066756C6C3A20000F
:102218004C6F67676564206F75742E0D0A00496EF0
:1022280076616C69642063686F6963652E20506C01
:10223800656173652074727920616761696E2E0A21
:1022480000092057656C636F6D6520746F205175A8
:1022580065656E20456C697A6162657468204E61B7
:1022680074696F6E616C207061726B2E0D0A00507C
:102278006C65617365204C6F67696E20746F2063AD
:102288006F6E74696E75652E0D0A00456E74657201
:1022980020796F757220757365726E616D653A206D
:1022A80000456E74657220796F7572207061737362
:1022B800776F72643A20004C6F67696E207375639C
:1022C8006365737366756C2E0D0A00496E76616CD2
:1022D800696420757365726E616D65206F72207018
:1022E800617373776F72642E20506C65617365201B
:1022F80074727920616761696E2E0D0A0043686FF8
:102308006F736520616E206F7074696F6E3A0D0A85
:1023180000312E20526567697374657220546F7599
:1023280072697374732E0D0A00322E20546F757201
:102338006973747320696E20746865207061726BAC
:102348002E0D0A00332E204361727320696E2074AB
:102358006865207061726B2E0D0A00342E20546F50
:1023680074616C206D6F6E657920636F6C6C65634A
:1023780074656420627920746865207061726B2EC0
:102388000D0A00352E204E756D626572206F66202D
:102398006472697665727320696E2074686520704E
:1023A80061726B2E0D0A00362E204E756D626572B5
:1023B800206F6620626F74746C657320696E207478
:1023C8006865206672696467652E0D0A00372E20DD
:1023D8005265706C656E69736820667269646765BA
:1023E8002E0D0A00382E20436865636B206966202D
:1023F8007061726B2069732066756C6C2E0D0A0013
:10240800392E204361722065786974696E6720707F
:1024180061726B2E0D0A0031302E204C6F676F757C
:10242800742E0D0A00456E74657220616E206F70FF
:1024380074696F6E2E0D0A00436172206174206703
:062448006174652E000026
:00000001FF
