:1000000071C0000028C100008AC0000088C0000044
:1000100086C0000084C0000082C0000080C00000D4
:100020007EC000007CC000007AC0000078C00000E4
:1000300076C0000074C0000072C0000070C00000F4
:100040006EC000006CC000006AC0000068C0000004
:1000500066C0000064C0000062C0000060C0000014
:100060005EC000005CC000005AC0000058C0000024
:1000700056C0000054C0000052C0000050C0000034
:100080004EC000004CC000004AC0000048C0000044
:1000900046C0000044C0000042C0000040C0000054
:1000A0003EC000003CC000003AC0000038C0000064
:1000B00036C0000034C0000032C0000030C0000074
:1000C0002EC000002CC000002AC0000028C0000084
:1000D00026C0000024C0000022C0000020C0000094
:1000E0001EC0000011241FBECFEFD1E2DEBFCDBF86
:1000F00015E0A0E0B2E0EAECF2E000E00BBF02C0E5
:1001000007900D92AA3AB107D9F725E0AAEAB5E01F
:1001100001C01D92AA3AB207E1F782D0D4C070CFD5
:100120001092C50083E38093C40088E18093C100EE
:1001300086E08093C200089584B3886084BB89EF11
:1001400090E00197F1F700C0000084B3877F84BB83
:1001500089EF90E00197F1F700C00000089582B1A7
:10016000886082B989EF90E00197F1F700C0000044
:1001700082B1877F82B989EF90E00197F1F700C0E3
:100180000000089581BB82B1826082B982B18B7F09
:1001900082B9E5CF08958093020184B38D7F84BB3B
:1001A00084B38B7F84BBC8CF089581BB82B18D7F20
:1001B00082B982B18B7F82B9D2CF08958FE0EBDF15
:1001C0008FE3E9DF81E0E7CF08958FE0EEDF8FE393
:1001D000ECDF81E0EACF0895EF92FF920F931F9337
:1001E000CF93DF937C0181E0E0DFF70101900020F5
:1001F000E9F731978F010E191F09C0E0D0E006C062
:10020000F701EC0FFD1F8081BDDF2196C017D107DC
:10021000BCF3DF91CF911F910F91FF90EF90089564
:1002200087E880930A01CFEFC0930101C3BBC0935D
:100230000701C0BBC1B9C9DFC1DF72DF78948DB3DC
:1002400081608DBB85B7826085BF1AB8C4B98BB198
:1002500081608BB9FFCF1F920F920FB60F921124BE
:100260000BB60F922F933F934F935F936F937F93B0
:100270008F939F93AF93BF93EF93FF9385B1806864
:1002800085B92FE986E891E0215080409040E1F760
:1002900000C0000085B18F7785B981E995E09CDFCA
:1002A000FF91EF91BF91AF919F918F917F916F914E
:1002B0005F914F913F912F910F900BBE0F900FBE0A
:0A02C0000F901F901895F894FFCFDF
:1002CA0025640053696C76657200313233004E75CD
:1002DA006D62657220706C6174653A200020596FF6
:1002EA007520656E74657265643A200042656C6FAC
:1002FA00772031307972733A200041626F76652037
:10030A0031307972733A2000546F7572697374735D
:10031A0020726567697374657265642073756363B7
:10032A0065737366756C6C792E20446174612073F1
:10033A00746F72656420696E20454550524F4D2E88
:10034A000D0A00546F75726973747320696E207494
:10035A006865207061726B3A0D0A004361727320FE
:10036A00696E20746865207061726B3A004E756D13
:10037A00626572206F66206472697665727320699D
:10038A006E20746865207061726B3A2025640A00D9
:10039A004E756D626572206F6620626F74746C654B
:1003AA007320696E20746865206672696467653AAD
:1003BA0020252E32660A004C6F67676564206F75C8
:1003CA00742E0D0A00496E76616C69642063686F49
:1003DA006963652E20506C6561736520747279209B
:1003EA00616761696E2E0A00092057656C636F6D3B
:1003FA006520746F20517565656E20456C697A6158
:10040A0062657468204E6174696F6E616C207061F8
:10041A00726B2E0D0A00506C65617365204C6F6714
:10042A00696E20746F20636F6E74696E75652E0D28
:10043A000A00456E74657220796F7572207573654E
:10044A00726E616D653A2000456E74657220796F2F
:10045A0075722070617373776F72643A20004C6F03
:10046A0067696E207375636365737366756C2E0DA9
:10047A000A00496E76616C696420757365726E61F3
:10048A006D65206F722070617373776F72642E20AE
:10049A00506C656173652074727920616761696E59
:1004AA002E0D0A0043686F6F736520616E206F70AE
:1004BA0074696F6E3A0D0A00312E205265676973AE
:1004CA0074657220546F7572697374732E0D0A0005
:1004DA00322E20546F75726973747320696E20749A
:1004EA006865207061726B2E0D0A00332E204361FD
:1004FA00727320696E20746865207061726B2E0DAC
:10050A000A00342E20546F74616C206D6F6E657909
:10051A0020636F6C6C65637465642062792074680B
:10052A0065207061726B2E0D0A00352E204E756D96
:10053A00626572206F6620647269766572732069DB
:10054A006E20746865207061726B2E0D0A00362E5B
:10055A00204E756D626572206F6620626F74746CCE
:10056A00657320696E2074686520667269646765C0
:10057A002E0D0A00372E205265706C656E697368FD
:10058A00206672696467652E0D0A00382E2043685A
:10059A0065636B206966207061726B2069732066DF
:1005AA00756C6C2E0D0A00392E204C6F676F7574AE
:1005BA002E0D0A00456E74657220616E206F70748C
:1005CA00696F6E2E0D0A00526567697374726174E1
:1005DA00696F6E00646F6E652E0047617465206FE7
:1005EA0070656E2E004761746520636C6F73696E67
:1005FA00672E00426F74746C6520636F73747300A6
:10060A005547583135303000426F74746C65733A0F
:10061A002000546F74616C20436F73743A0055471D
:10062A00582E00507265737320313A4163636570C6
:10063A007400507265737320303A205175697400E2
:10064A00427965204279652E205468616E6B732E5B
:10065A0000496E636F6D696E6720746F7572697396
:0A066A00742076656869636C650012
:00000001FF
