:1000000080C00000BAC300009AC0000098C0000081
:1000100096C0000094C0000092C0000090C0000094
:100020008EC000008CC000008AC0000088C00000A4
:1000300086C0000084C0000082C0000080C00000B4
:100040007EC000007CC000007AC0000078C00000C4
:1000500076C0000074C0000072C0000070C00000D4
:100060006EC000006CC000006AC0000068C00000E4
:1000700066C0000064C0000062C0000060C00000F4
:100080005EC000005CC000005AC0000058C0000004
:1000900056C0000054C0000052C0000050C0000014
:1000A0004EC000004CC000004AC0000048C0000024
:1000B00046C0000044C0000042C0000040C0000034
:1000C0003EC000003CC000003AC0000038C0000044
:1000D00036C0000034C0000032C0000030C0000054
:1000E0002EC000003402BE02FC02310300031003E4
:1000F0003103310328036364696E6F707375785838
:100100005B0011241FBECFEFD1E2DEBFCDBF15E0F3
:10011000A0E0B2E0EAE5F5E100E00BBF02C0079025
:100120000D92A23EB107D9F726E0A2EEB5E001C0DC
:100130001D92A230B207E1F704D30C94AB0A60CF52
:100140001092C50083E38093C40088E18093C100CE
:1001500086E08093C2000895DC01FC01019000203C
:10016000E9F73197AF01481B590B20E030E00CC094
:100170009091C00095FFFCCFFD01E20FF31F90812D
:100180009093C6002F5F3F4F241735078CF30895D7
:100190008091C0008823E4F78091C60008950F93F2
:1001A0001F93CF93DF93CDB7DEB764970FB6F89464
:1001B000DEBF0FBECDBF9F938F938AE092E09F93E7
:1001C0008F938E010F5F1F4F1F930F9363D3C8014F
:1001D000C3DF0F900F900F900F900F900F906496C9
:1001E0000FB6F894DEBF0FBECDBFDF91CF911F9148
:1001F0000F910895CF93DF93EB016DE072E0FED293
:10020000892B49F464E172E0CE01F8D2892B31F0F8
:1002100080E090E005C080E090E002C081E090E0E6
:10022000DF91CF910895CF92DF92EF92FF920F93DB
:100230001F93CF936C017B0100E010E00EC0A8DF9C
:10024000C82F90E089DFCA3069F0CD3059F0F6014F
:10025000E00FF11FC0830F5F1F4FC7010197081701
:1002600019076CF3F601E00FF11F1082CF911F9177
:100270000F91FF90EF90DF90CF9008950F931F9311
:10028000CF93DF93CDB7DEB766970FB6F894DEBF96
:100290000FBECDBF64E170E08E010F5F1F4FC8013C
:1002A000C2DFCE0145969F938F938AE092E09F93A1
:1002B0008F931F930F931CD30F900F900F900F905D
:1002C0000F900F908D899E8966960FB6F894DEBFC9
:1002D0000FBECDBFDF91CF911F910F910895CF93A6
:1002E00057DFC82F84E992E037DF8C2FCF91089534
:1002F00080910402909105020E948C0A9093E4057B
:100300008093E305893C910514F081E0089580E035
:10031000089584B3886084BB89EF90E00197F1F77A
:1003200000C0000084B3877F84BB89EF90E0019711
:10033000F1F700C00000089582B1886082B989EFAA
:1003400090E00197F1F700C0000082B1877F82B989
:1003500089EF90E00197F1F700C0000008958093C5
:10036000020184B3826084BB84B38B7F84BBD1CF12
:10037000089581BB82B1826082B982B18B7F82B9DC
:10038000DBCF08958093020184B38D7F84BB84B357
:100390008B7F84BBBECF089581BB82B18D7F82B934
:1003A00082B18B7F82B9C8CF08958FE0EBDF8FE3F6
:1003B000E9DF81E0E7CF08958FE0EEDF8FE3ECDF48
:1003C00081E0EACF0895EF92FF920F931F93CF93AE
:1003D000DF937C0181E0D6DFF70101900020E9F78F
:1003E00031978F010E191F09C0E0D0E006C0F70158
:1003F000EC0FFD1F8081B3DF2196C017D107BCF33E
:10040000DF91CF911F910F91FF90EF900895EF92A0
:10041000FF920F931F93CF93DF937C0181E0BCDFAA
:10042000F70101900020E9F731978F010E191F099C
:10043000C0E0D0E006C0F701EC0FFD1F808199DF1E
:100440002196C017D107BCF3DF91CF911F910F9177
:10045000FF90EF900895C1978930910508F0FEC094
:100460008E589F4FFC01C1C143DF882319F088E1FA
:1004700092E0A9DF82E292E06FDE69E070E08DEE4B
:1004800095E0D1DE81E392E067DE8DEE95E064DEFB
:1004900084E992E061DE80E492E05EDEEFDE90933C
:1004A000EA058093E90581E392E056DE8091E90553
:1004B0009091EA0574DE84E992E04EDE8EE492E0EB
:1004C0004BDEDCDE9093E8058093E70581E392E064
:1004D00043DE8091E7059091E80561DE84E992E0D2
:1004E0003BDE6091EB057091EC0549E050E08DEE4C
:1004F00095E00E94910A6091E9057091EA0580916A
:100500000802909109020E94A80A6091E705709183
:10051000E80580910602909107020E94A80A609166
:10052000E7057091E8058091E9059091EA05680F6B
:10053000791F80910402909105020E94A80A8CE51F
:1005400092E00ADE87E992E062DFFFE72AE186E0D7
:10055000F15020408040E1F700C0000084EA92E0C2
:1005600056DF9FEBE7E2F9E09150E040F040E1F721
:1005700000C0000081EB92E04ACF08956091EB0546
:100580007091EC0549E050E08DEE95E0B5D7809193
:10059000080290910902C0D79093EA058093E9057B
:1005A0008091060290910702B7D79093E805809357
:1005B000E70586EC92E0D0DD82E292E0CDDD8DEEC3
:1005C00095E0CADD84E992E0C7DD80E492E0C4DD15
:1005D0008091E9059091EA05E2DD84E992E0BCDDD5
:1005E0008EE492E0B9DD8091E7059091E805D7DDD2
:1005F00084E992E0B1CD08958EED92E01BC108959B
:100600008091E6058F938091E5058F9380EF92E0CE
:100610009F938F93FCD00F900F900F900F900895A1
:10062000809103028F93809102028F938091010247
:100630008F93809100028F9383E193E09F938F9338
:10064000E6D00F900F900F900F900F900F9008959D
:100650001092E2058AE393E07FCD089588E493E069
:100660007BCD08951F93CF93DF93CDB7DEB7A897C7
:100670000FB6F894DEBF0FBECDBF8BE693E06CDD06
:1006800089E993E069DD10E026C085EB93E064DD45
:1006900064E170E0CE010196C6DD84E992E05CDDA4
:1006A0008BEC93E059DD64E170E0CE014596BBDD53
:1006B00084E992E051DDBE016B5E7F4FCE01019671
:1006C00099DD892B29F081EE93E046DD11E003C02E
:1006D00085EF93E041DD1123C1F287E294E03CDD38
:1006E0008BE394E039DD83E594E036DD8EE694E03B
:1006F00033DD85E894E030DD8DEA94E02DDD81ED99
:1007000094E02ADD87EF94E027DD8EE095E024DD9C
:100710008AE295E021DD87E395E01EDDE0DD182F1C
:1007200090E099DE1933C9F68AE393E015DDA896C7
:100730000FB6F894DEBF0FBECDBFDF91CF911F91F2
:10074000089587E880930A01CFEFC0930101C3BBEE
:10075000C0930701C0BBC1B92FDE27DEF1DC78945E
:100760008DB381608DBB85B7826085BF1AB8C4B96F
:100770008BB181608BB976DFFECF1F920F920FB6DF
:100780000F9211240BB60F922F933F934F935F93C9
:100790006F937F938F939F93AF93BF93EF93FF9349
:1007A00085B1806885B92FE986E891E021508040C5
:1007B0009040E1F700C0000085B18F7785B984EDE6
:1007C00095E025DEFF91EF91BF91AF919F918F91C1
:1007D0007F916F915F914F913F912F910F900BBE41
:1007E0000F900FBE0F901F901895EE0FFF1F002463
:1007F000001C0BBE0790F691E02D0994FB01DC0173
:100800008D91019080190110D9F3990B0895CF9320
:10081000DF93CDB7DEB7AE014B5F5F4FFA01619159
:100820007191AF018091FE059091FF0582D0DF911B
:10083000CF9108950F931F93CF93DF93E091FE051F
:10084000F091FF05238121FF1BC08C01D0E0C0E0A7
:10085000F80181918F016091FE057091FF05DB0128
:100860001896ED91FC911997882331F00995892B01
:1008700079F3DFEFCFEFECCF8AE00995892B19F000
:100880008FEF9FEF02C08D2F9C2FDF91CF911F9193
:100890000F9108950F931F93CF93DF93CDB7DEB7DA
:1008A0002E970FB6F894DEBF0FBECDBF0D891E89FF
:1008B00086E08C831A8309838FEF9FE79E838D8365
:1008C000AE01475E5F4F6F89788DCE01019631D0C2
:1008D000EF81F885E00FF11F10822E960FB6F89485
:1008E000DEBF0FBECDBFDF91CF911F910F91089555
:1008F000CF93DF93CDB7DEB72E970FB6F894DEBF58
:100900000FBECDBF85E08C838B899C899A838983B8
:10091000AE01495E5F4F6D897E89CE010196B8D3E5
:100920002E960FB6F894DEBF0FBECDBFDF91CF91EC
:1009300008952F923F924F925F926F927F928F9283
:100940009F92AF92BF92CF92DF92EF92FF920F935E
:100950001F93CF93DF93CDB7DEB72B970FB6F894E5
:10096000DEBF0FBECDBF6C017B018A01FC01178287
:100970001682838181FFBFC1CE0101963C01F60141
:100980009381F70193FD859193FF81917F018823E6
:1009900009F4ADC1853239F493FD859193FF8191BE
:1009A0007F01853221F4B60190E0F0D4E8CF912C9C
:1009B000212C312CFFE1F315D8F08B3279F038F48B
:1009C000803279F08332A1F4232D20611DC08D3255
:1009D00061F0803369F4232D216016C0832D82607D
:1009E000382EE32DE4603E2E2AC0F32DF8601DC0A2
:1009F00037FC2DC020ED280F2A3040F08E32B9F49C
:100A000036FC75C1232D2064322E19C036FE06C077
:100A10008AE0989E200D1124922E11C0EAE02E9EAD
:100A2000200D1124222EF32DF0623F2E08C08C36AB
:100A300021F4832D8068382E02C0883641F4F701F6
:100A400093FD859193FF81917F018111B3CF982F01
:100A50009F7D9554933028F40C5F1F4F9FE399833B
:100A60000DC0833631F0833771F0833509F055C0FE
:100A700020C0F801808189830E5F1F4F88248394F2
:100A8000912C530112C02801F2E04F0E511CF801C5
:100A9000A080B18036FE03C0692D70E002C06FEF08
:100AA0007FEFC5012AD44C018201F32DFF773F2E41
:100AB00015C0280122E0420E511CF801A080B1802F
:100AC00036FE03C0692D70E002C06FEF7FEFC501F5
:100AD00009D44C01F32DF0683F2E820133FC19C07C
:100AE000822D90E088169906A0F4B60180E290E08D
:100AF0004DD42A94F5CFF50137FC859137FE8191CD
:100B00005F01B60190E042D421102A9421E0821ABC
:100B100091088114910479F7E1C0843611F0893687
:100B200039F5F80137FE07C06081718182819381B8
:100B30000C5F1F4F08C060817181072E000C880B6D
:100B4000990B0E5F1F4FF32DFF763F2E97FF09C0C5
:100B500090958095709561957F4F8F4F9F4FF0686E
:100B60003F2E2AE030E0A30166D4882E861844C0C8
:100B7000853731F4232D2F7EB22E2AE030E025C0B8
:100B8000932D997FB92E8F36C1F018F4883579F0FE
:100B9000AEC0803719F0883721F0A9C0E92FE06195
:100BA000BE2EB4FE0DC0FB2DF460BF2E09C034FE76
:100BB0000AC0292F2660B22E06C028E030E005C00A
:100BC00020E130E002C020E132E0F801B7FE07C0CA
:100BD00060817181828193810C5F1F4F06C06081AB
:100BE000718180E090E00E5F1F4FA30124D4882E16
:100BF0008618FB2DFF773F2E36FE0DC0232D2E7F4E
:100C0000A22E891458F434FE0BC032FC09C0832D87
:100C10008E7EA82E05C0B82CA32C03C0B82C01C012
:100C2000B92CA4FE0FC0FE01E80DF11D80818033B8
:100C300021F49A2D997EA92E09C0A2FE06C0B39474
:100C4000B39404C08A2D867809F0B394A3FC10C035
:100C5000A0FE06C0B21480F4280C922C9B180DC084
:100C6000B21458F4B60180E290E090D3B394F8CF78
:100C7000B21418F42B1802C0982C212CA4FE0FC01B
:100C8000B60180E390E082D3A2FE16C0A1FC03C0AF
:100C900088E790E002C088E590E0B6010CC08A2D9C
:100CA000867851F0A1FE02C08BE201C080E2A7FC71
:100CB0008DE2B60190E06AD3891430F4B60180E386
:100CC00090E064D39A94F8CF8A94F301E80DF11D73
:100CD0008081B60190E05AD38110F6CF222009F42A
:100CE0004ECEB60180E290E051D32A94F7CFF601C0
:100CF0008681978102C08FEF9FEF2B960FB6F894F5
:100D0000DEBF0FBECDBFDF91CF911F910F91FF903E
:100D1000EF90DF90CF90BF90AF909F908F907F909B
:100D20006F905F904F903F902F90089520FD09C0E5
:100D3000FC0123FD05C022FF02C07383628351833F
:100D40004083089544FD17C046FD17C0AB01BC01A8
:100D5000DA01FB01AA0FBB1FEE1FFF1F1094D1F792
:100D60004A0F5B1F6E1F7F1FCB01BA01660F771FF3
:100D7000881F991F09C033E001C034E0660F771F58
:100D8000881F991F3150D1F7620F711D811D911D70
:100D900008950F931F93CF93DF938C01C801B8D2AE
:100DA000EC0197FD06C08BD2892BC1F7B801CE01AB
:100DB00029D3CE01DF91CF911F910F9108958F928A
:100DC0009F92AF92BF92EF92FF920F931F93CF9398
:100DD000DF938C01D62F7A01B22E9AD29C01332751
:100DE0002B32310531F02D32310559F48B2D8068CD
:100DF000B82ED15011F480E061C0C80189D297FDAE
:100E0000FACFCB2DCD7F2B2D2073F9F48033E9F46D
:100E1000AA24AA94AD0E09F43EC0C80179D297FD68
:100E20003AC09C012F7D33272835310541F4C26437
:100E3000D25089F1C8016CD297FF07C02CC0B6FE12
:100E400002C0C26001C0C261DA2D812C912C540114
:100E500020ED280F283078F0C4FF03C0B801D2D2AB
:100E600017C02A3040F0C6FFF9CF2F7D3FEE320F7A
:100E70003630A0F727504C2FC501B40163DF4B017A
:100E80005C01C260D15051F0C80142D297FFE0CF5F
:100E9000C1FD04C0B0CF812C912C5401C7FF08C004
:100EA000B094A09490948094811C911CA11CB11CBE
:100EB0002C2FB501A401C70139DF81E0DF91CF916B
:100EC0001F910F91FF90EF90BF90AF909F908F90E8
:100ED00008955F926F927F928F929F92AF92BF928E
:100EE000CF92DF92EF92FF920F931F93CF93DF93F6
:100EF000CDB7DEB7A0970FB6F894DEBF0FBECDBF5B
:100F00005C01962E7A01F9018E010F5F1F4F680177
:100F100080E2D8011D928A95E9F7D50113968C904D
:100F200080E090E0612C712C30E061E070E083FCA7
:100F3000259183FE21918F01522E211103C080E063
:100F400090E090C02E3511F4009751F1432F50E0FE
:100F5000481759073CF42D3559F12D3219F47720F3
:100F600009F103C0772009F468C0452D46954695E0
:100F70004695D601A40FB11D452D47708B0102C0C7
:100F8000000F111F4A95E2F7A8015C91452B4C9385
:100F9000651459F0561410F45394E7CF5A94E5CFE2
:100FA00031E004C07724739401C0712C0196BFCF47
:100FB000772019F08E8180628E83311103C08824DE
:100FC000839417C0F6019E012F5D3F4F808180956D
:100FD00081932E173F07D1F7F2CFE114F10429F0E6
:100FE000D7018C93F70131967F019A94812C992037
:100FF000E9F0C5018DD197FD17C0FC01FF2723E063
:10100000F595E7952A95E1F7EC0DFD1D208130E07F
:10101000AC014770552702C0359527954A95E2F7F0
:1010200020FDDBCFB501EED1811089CFE114F104B1
:1010300011F0D7011C92C80115C0422F4695469564
:101040004695D601A40FB11D422F47708B0102C0F7
:10105000000F111F4A95E2F7A8015C91452B4C93B4
:10106000622EA4CFA0960FB6F894DEBF0FBECDBF00
:10107000DF91CF911F910F91FF90EF90DF90CF9074
:10108000BF90AF909F908F907F906F905F900895EA
:101090005F926F927F928F929F92AF92BF92CF9208
:1010A000DF92EF92FF920F931F93CF93DF936C0128
:1010B000EB015A01FC0117821682512CF601E380E4
:1010C000FE01E3FC8591E3FE8191182FEF01882357
:1010D00009F4E0C090E0F3D0892B19F0C60159DE85
:1010E000EDCF153241F4FE01E3FC1591E3FE1191C1
:1010F000EF01153271F4C6010BD197FDC9C0412F24
:1011000050E09C01332724173507C1F2B6017AD18C
:10111000C1C01A3239F4E3FC1591E3FE1191EF01DD
:1011200001E001C000E0F12C20ED210F2A3078F41D
:1011300002606F2D70E080E090E040E203DEF62E6A
:10114000FE01E3FC1591E3FE1191EF01EDCF01FFEC
:1011500003C0F11003C09EC0FF24FA94183619F0A2
:101160001C3651F010C0FE01E3FC1591E3FE119115
:10117000EF01183641F408600460FE01E3FC1591AC
:10118000E3FE1191EF01112309F484C0612F70E097
:1011900086EF90E09CD0892B09F47CC000FD07C04D
:1011A000F50180809180C50102965C0102C0812C0E
:1011B000912C1E3649F4F6014681578160E070E0BB
:1011C000202FC401B3DD7ACF1336A1F401FD02C094
:1011D000FF24F394C6019CD097FD5AC0811491045A
:1011E00029F0F4018083C40101964C01FA94F110B6
:1011F000F1CF4AC01B3551F49E01A4016F2DC601E9
:1012000068DEEC01892B09F03FC039C0C601C1DDA1
:1012100097FD3EC01F3649F128F4143621F11936E6
:1012200039F125C0133771F01537E9F020C081146A
:10123000910429F0F4016082C40101964C01FA94F2
:10124000FF2059F0C60164D03C0197FD06C037D09D
:10125000892B69F3B601C301D5D081149104A1F0A3
:10126000F401108211C0006203C0006101C000647B
:10127000202FA4016F2DC601A2DD811105C0F6014A
:101280008381807329F406C000FD18CF539416CFD4
:10129000552019F0852D90E002C08FEF9FEFDF9170
:1012A000CF911F910F91FF90EF90DF90CF90BF9063
:1012B000AF909F908F907F906F905F900895911165
:1012C00018C1803219F089508550D0F70895FC017B
:1012D0000590061621F00020D9F7C0010895319736
:1012E000CF010895FC010590615070400110D8F7BE
:1012F000809590958E0F9F1F0895FC01615070405E
:1013000001900110D8F7809590958E0F9F1F08953A
:10131000CF93DF93EC012B8120FF33C026FF0AC05F
:101320002F7B2B838E819F8101969F838E838A8161
:1013300090E029C022FF0FC0E881F9818081082E4A
:10134000000C990B009719F420622B831AC0319678
:10135000F983E8830EC0EA85FB85099597FF09C0EC
:101360002B81019611F080E201C080E1822B8B83FA
:1013700008C02E813F812F5F3F4F3F832E839927E7
:1013800002C08FEF9FEFDF91CF9108950F931F93CE
:10139000CF93DF93FB01238121FD03C08FEF9FEFEC
:1013A0002CC022FF16C04681578124813581421707
:1013B000530744F4A081B1819D012F5F3F4F3183DA
:1013C00020838C93268137812F5F3F4F378326837D
:1013D00014C08B01EC01FB010084F185E02D09951F
:1013E000892BE1F6D80116968D919C91179701965D
:1013F00017969C938E931697CE01DF91CF911F91F4
:101400000F910895FB01238120FF12C026FD10C01B
:101410008F3F3FEF930761F082832F7D206423830A
:1014200026813781215031093783268399270895F2
:101430008FEF9FEF0895FA01AA27283051F120314C
:1014400081F1E8946F936E7F6E5F7F4F8F4F9F4F58
:10145000AF4FB1E03ED0B4E03CD0670F781F891F9A
:101460009A1FA11D680F791F8A1F911DA11D6A0F68
:10147000711D811D911DA11D20D009F468943F911B
:101480002AE0269F11243019305D3193DEF6CF011A
:101490000895462F4770405D4193B3E00FD0C9F7E0
:1014A000F6CF462F4F70405D4A3318F0495D31FD4D
:1014B0004052419302D0A9F7EACFB4E0A6959795A0
:1014C000879577956795BA95C9F700976105710576
:1014D00008959B01AC010A2E0694579547953795C0
:1014E0002795BA95C9F7620F731F841F951FA01D1A
:1014F0000895992788270895DC01CB01FC01F9990B
:10150000FECF06C0F2BDE1BDF89A319600B40D924F
:1015100041505040B8F70895A8E1B0E042E050E0F3
:10152000EDCFDC01CB0102C02D9105D041505040E0
:10153000D8F70895262FF999FECF1FBA92BD81BD25
:1015400020BD0FB6F894FA9AF99A0FBE0196089545
:0A155000F1DF272FF0CFF894FFCF52
:10155A00000048421E0014000A0025640053696C0A
:10156A0076657200313233007061726B2066756C79
:10157A006C004E756D62657220706C6174653A20FC
:10158A000020596F7520656E74657265643A200093
:10159A0042656C6F772031307972733A200041626C
:1015AA006F76652031307972733A2000546F757204
:1015BA0069737473207265676973746572656420F0
:1015CA007375636365737366756C6C792E204461F9
:1015DA0074612073746F72656420696E204545508A
:1015EA00524F4D2E0D0A0043617220706173736968
:1015FA006E672E004761746520636C6F73696E674E
:10160A0000517565656E20456C697A61626574681A
:10161A00204E2E502E00546F7572697374732069B0
:10162A006E20746865207061726B3A0D0A0043611E
:10163A00727320696E20746865207061726B3A005B
:10164A004E756D626572206F662064726976657286
:10165A007320696E20746865207061726B3A202568
:10166A00640A004E756D626572206F6620626F743F
:10167A00746C657320696E2074686520667269648B
:10168A0067653A20252E32660A004C6F67676564E3
:10169A00206F75742E0D0A00496E76616C6964209C
:1016AA0063686F6963652E20506C65617365207489
:1016BA00727920616761696E2E0A00092057656C8C
:1016CA00636F6D6520746F20517565656E20456C7A
:1016DA00697A6162657468204E6174696F6E616CC3
:1016EA00207061726B2E0D0A00506C656173652063
:1016FA004C6F67696E20746F20636F6E74696E75C4
:10170A00652E0D0A00456E74657220796F75722018
:10171A00757365726E616D653A2000456E74657207
:10172A0020796F75722070617373776F72643A20D3
:10173A00004C6F67696E20737563636573736675B2
:10174A006C2E0D0A00496E76616C696420757365AA
:10175A00726E616D65206F722070617373776F723C
:10176A00642E20506C6561736520747279206167FC
:10177A0061696E2E0D0A0043686F6F736520616E92
:10178A00206F7074696F6E3A0D0A00312E2052650F
:10179A0067697374657220546F7572697374732EF6
:1017AA000D0A00322E20546F7572697374732069A2
:1017BA006E20746865207061726B2E0D0A00332EDC
:1017CA00204361727320696E2074686520706172AB
:1017DA006B2E0D0A00342E20546F74616C206D6FCD
:1017EA006E657920636F6C6C6563746564206279D9
:1017FA0020746865207061726B2E0D0A00352E20E8
:10180A004E756D626572206F6620647269766572C4
:10181A007320696E20746865207061726B2E0D0AE0
:10182A0000362E204E756D626572206F6620626FDB
:10183A0074746C657320696E2074686520667269B9
:10184A006467652E0D0A00372E205265706C656E2E
:10185A00697368206672696467652E0D0A00382EFE
:10186A0020436865636B206966207061726B20692A
:10187A00732066756C6C2E0D0A00392E204C6F672A
:10188A006F75742E0D0A00456E74657220616E20A4
:10189A006F7074696F6E2E0D0A00526567697374F2
:1018AA00726174696F6E00646F6E652E00476174B1
:1018BA0065206F70656E2E004761746520636C6FDA
:1018CA0073696E672E00426F74746C6520636F7360
:1018DA007473005547583135303000426F74746C58
:1018EA0065733A2000546F74616C20436F73743AC5
:1018FA00005547582E00507265737320313A416380
:10190A006365707400507265737320303A205175A4
:10191A00697400427965204279652E205468616EA7
:10192A006B732E0043617220617420676174652EA7
:02193A000000AB
:00000001FF
