S0120000636F75727365776F726B2E73726563BE
S113000077C0000082C5000091C000008FC00000CE
S11300108DC000008BC0000089C0000087C00000B4
S113002085C0000083C0000081C000007FC00000C4
S11300307DC000007BC0000079C0000077C00000D4
S113004075C0000073C0000071C000006FC00000E4
S11300506DC000006BC0000069C0000067C00000F4
S113006065C0000063C0000061C000005FC0000004
S11300705DC000005BC0000059C0000057C0000014
S113008055C0000053C0000051C000004FC0000024
S11300904DC000004BC0000049C0000047C0000034
S11300A045C0000043C0000041C000003FC0000044
S11300B03DC000003BC0000039C0000037C0000054
S11300C035C0000033C0000031C000002FC0000064
S11300D02DC000002BC0000029C0000027C0000074
S11300E025C000006364696E6F70737578585B0097
S11300F011241FBECFEFD1E2DEBFCDBF16E0A0E0DA
S1130100B2E0E6E1F9E100E00BBF02C007900D9216
S1130110A23DB107D9F726E0A2EDB6E001C01D92D9
S1130120A33FB207E1F7CFD40C94890C69CF809137
S11301300D0290910E020C946A0C089580910B02AA
S113014090910C020C946A0C08958091070290918E
S113015008020C946A0C0895DC01FC010190002053
S1130160E9F731979F01281B390B2150310909C048
S1130170FD01E20FF31F9081911105C010822150FF
S113018031093323ACF7CD0108951092C50083E300
S11301908093C40088E18093C10086E08093C2000C
S11301A00895DC01FC0101900020E9F73197AF01CB
S11301B0481B590B20E030E00CC09091C00095FF23
S11301C0FCCFFD01E20FF31F90819093C6002F5FD7
S11301D03F4F241735078CF308958091C00088237E
S11301E0E4F78091C60008950F931F93CF93DF9394
S11301F0CDB7DEB764970FB6F894DEBF0FBECDBFA0
S11302009F938F9381EE92E09F938F938E010F5F64
S11302101F4F1F930F931CD5C801C3DF0F900F907E
S11302200F900F900F900F9064960FB6F894DEBF66
S11302300FBECDBFDF91CF911F910F910895CF9342
S1130240DF93EB016FE072E0B8D4892B49F466E1E7
S113025072E0CE01B2D4892B31F080E090E005C089
S113026080E090E002C081E090E0DF91CF910895BA
S1130270CF92DF92EF92FF920F931F93CF936C0173
S11302807B0100E010E00EC0A8DFC82F90E089DFFA
S1130290CA3069F0CD3059F0F601E00FF11FC08388
S11302A00F5F1F4FC7010197081719076CF3F60179
S11302B0E00FF11F1082CF911F910F91FF90EF90EB
S11302C0DF90CF9008950F931F93CF93DF93CDB713
S11302D0DEB766970FB6F894DEBF0FBECDBF64E1FC
S11302E070E08E010F5F1F4FC801C2DFCE0145963B
S11302F09F938F9381EE92E09F938F931F930F931D
S1130300D5D40F900F900F900F900F900F908D8970
S11303109E8966960FB6F894DEBF0FBECDBFDF91FF
S1130320CF911F910F910895CF9357DFC82F87E680
S113033093E037DF8C2FCF9108958091090290913B
S11303400A020E946A0C9093D8068093D706893CCF
S1130350910514F081E0089580E008952091D50678
S11303603091D60612161306DCF4609105027091E2
S113037006024FE050E00E946F0C8091D5069091E8
S1130380D60601969093D6068093D50680910502F1
S1130390909106020F9690930602809305020895A9
S11303A060910502709106024FE050E00E946F0CCC
S11303B08091D5069091D60601969093D6068093A7
S11303C0D50680910502909106020F96909306023D
S11303D08093050208958091050290910602893266
S11303E0910508F00F970895CF92DF92EF92FF9254
S11303F00F931F93CF93DF93CDB7DEB72F970FB62D
S1130400F894DEBF0FBECDBF8AE192E0CADE8091D0
S1130410D5069091D606E8DE87E693E0C2DE8BE24D
S113042092E0BFDE87E693E0BCDED5DF6C0120916D
S1130430D5063091D60641EF42038001439F100D4B
S113044011248091050290910602080F191FEE24D1
S1130450E394F12C17C04FE050E0B801CE010196AF
S11304600E945A0CC701C0DE80E193E09ADECE01FF
S1130470019697DE87E693E094DE8FEFE81AF80A98
S1130480015F1F4FC016D10630F72F960FB6F894B0
S1130490DEBF0FBECDBFDF91CF911F910F91FF90B3
S11304A0EF90DF90CF900895CF93DF9340DE28E85C
S11304B033E1829FE001839FD00D929FD00D1124E0
S11304C03DDE20E137E2AC01429FC001439F900D25
S11304D0529F900D1124C80FD91F8CE492E061DE65
S11304E0CE0182DE87E693E05CDEDF91CF91089552
S11304F00F931F93CF93DF93EC018B0105C06FEF34
S1130500CE010E94780C2196C017D107C0F3DF9169
S1130510CF911F910F9108955EDFBC0180E090E0C0
S1130520E7DF85E692E03DDE87E693E03ACE089584
S1130530BC0180910D0290910E020C94860C0895DA
S1130540BC0180910B0290910C020C94860C0895CE
S1130550EF92FF920F931F93CF93DF93CDB7DEB744
S1130560A4970FB6F894DEBF0FBECDBF86E892E025
S113057018DE6FE070E0CE0101967ADE87E693E044
S113058010DE2091D5063091D60641EF420380015A
S1130590439F100D11248091050290910602080FCB
S11305A0191F19DF8017910708F45FC04FE050E06E
S11305B0B801CE0140960E945A0C61EA72E0CE0165
S11305C04096F8D298A38F8FEE24E394F12C13C0B5
S11305D061EA72E080E090E0EDD2F701EE0FFF1FD8
S11305E021E030E02C0F3D1FE20FF31F978F868F21
S11305F03FEFE31AF30A892B59F7EF8CF8A0CE01E9
S11306000196AADDB701D9D2892B19F58091D506B7
S11306109091D60601979093D6068093D506B8019B
S1130620615F7F4FC80164DF82DD8C0189A19AA1DB
S1130630A4D29801281B390BC9017ADF7FDD8C0114
S11306408BA19CA19AD29801281B390BC90178DF90
S11306500CC083EA92E0A5DDCE010196A2DD88EC10
S113066092E09FDD87E693E09CDDA4960FB6F894B4
S1130670DEBF0FBECDBFDF91CF911F910F91FF90D1
S1130680EF900895BC0180910702909108020C94A8
S1130690860C089580E090E04BDF80E090E050DF2E
S11306A080E090E0EFCF0895CF92DF92EF92FF9237
S11306B00F931F93CF93DF93CDB7DEB72F970FB66A
S11306C0F894DEBF0FBECDBF7B018A011F934F9309
S11306D0FF926F939F938F938BED92E09F938F93F1
S11306E0CE0101966C019F938F93B2D2C60136DE80
S11306F01EDD8E0D9F1D1CDF21DD800F911F20DF6D
S113070024DD800F911F8E0D9F1DBCDF0FB6F89462
S1130710DEBF0FBECDBF2F960FB6F894DEBF0FBE5F
S1130720CDBFDF91CF911F910F91FF90EF90DF909C
S1130730CF90089584B3886084BB89EF90E00197DB
S1130740F1F700C0000084B3877F84BB89EF90E099
S11307500197F1F700C00000089582B1886082B962
S113076089EF90E00197F1F700C0000082B1877F24
S113077082B989EF90E00197F1F700C00000089575
S113078081BB82B1826082B982B18B7F82B9E5CFAD
S113079008958093020184B38D7F84BB84B38B7FDF
S11307A084BBC8CF089581BB82B18D7F82B982B1E9
S11307B08B7F82B9D2CF08958FE0EBDF8FE3E9DF3F
S11307C081E0E7CF08958FE0EEDF8FE3ECDF81E097
S11307D0EACF0895EF92FF920F931F93CF93DF9385
S11307E07C0181E0E0DFF70101900020E9F7319717
S11307F08F010E191F09C0E0D0E006C0F701EC0F0D
S1130800FD1F8081BDDF2196C017D107BCF3DF91A6
S1130810CF911F910F91FF90EF900895853391052B
S113082009F4AFC084F48233910509F48AC01CF43E
S1130830C197F9F0E2C08333910509F49EC0C497CF
S113084009F49DC0DAC08833910509F4BEC044F4AC
S11308508633910509F4A1C0C79709F4D1C0CDC06E
S11308608933910509F4C1C08033914309F4BFC0B1
S1130870C4C063DD882321F08BEE92E0ABCF0895F2
S113088085EF92E08EDC6AE070E08DED96E0F0DCBE
S113089084E093E086DC8DED96E083DC87E693E0EC
S11308A080DC83E193E07DDC0EDD9093DC068093B5
S11308B0DB0684E093E075DC8091DB069091DC0636
S11308C093DC87E693E06DDC81E293E06ADCFBDC99
S11308D09093DA068093D90684E093E062DC8091F9
S11308E0D9069091DA0680DC87E693E05ADC4091E1
S11308F0D9065091DA066091DB067091DC068DED25
S113090096E0D2DE8FE293E04CDC8AE693E062DF8D
S11309108FE79AE126E0815090402040E1F700C043
S1130920000087E793E056DF8FEB97E229E08150E0
S113093090402040E1F700C0000084E893E04ACFF3
S1130940089589E993E02DDC83E193E02ADCEFDB71
S11309504BDC87E693E025DC81E293E022DCEEDBEE
S113096043DC87E693E01DDC81EB93E01ADCEDDBEE
S11309703BDC87E693E015CC089536CD089594CDFD
S1130980089589EB93E00DDC8091D5069091D6060D
S11309902BDC87E693E005CC0895809104028F93C5
S11309A0809103028F93809102028F9380910102C0
S11309B08F938DED93E09F938F9337D10F900F908A
S11309C00F900F900F900F90089584E094E0E9DB6E
S11309D0B4DC882319F084EE92E002C088EE92E041
S11309E0E0DB87E693E0DDCB0895B2CD0895109265
S11309F0D40683E194E0D5CB089581E294E0D1CB91
S1130A000895CF93DF93CDB7DEB7A8970FB6F894C8
S1130A10DEBF0FBECDBF84E494E0C3DB82E794E085
S1130A20C0DB10E026C08EE894E0BBDB64E170E03C
S1130A30CE0101961DDC87E693E0B3DB84EA94E003
S1130A40B0DB64E170E0CE01459612DC87E693E00A
S1130A50A8DBBE016B5E7F4FCE010196F0DB892BD4
S1130A6029F08AEB94E09DDB11E003C08EEC94E066
S1130A7098DB1123C1F280E095E093DB84E195E0FB
S1130A8090DB8CE295E08DDB87E495E08ADB8EE5F4
S1130A9095E087DB86E895E084DB8AEA95E081DBF4
S1130AA080ED95E07EDB87EE95E07BDB83E096E0EE
S1130AB078DB8AE196E075DB88E296E072DB34DC71
S1130AC090E0ACDED8CF87E880930A01CFEFC093E3
S1130AD00101C3BBC0930701C0BBC1B974DE6CDEA6
S1130AE054DBD8DD78948DB381608DBB85B782608B
S1130AF085BF1AB8C4B98BB181608BB980910002EB
S1130B00882311F009DDC6DD7CDF1F920F920FB63A
S1130B100F9211240BB60F922F933F934F935F9331
S1130B206F937F938F939F93AF93BF93EF93FF93B1
S1130B3085B1806885B92FE986E891E0215080402D
S1130B409040E1F700C0000085B18F7785B985EC4E
S1130B5096E040DEFF91EF91BF91AF919F918F910D
S1130B607F916F915F914F913F912F910F900BBEA9
S1130B700F900FBE0F901F901895FC01882799279E
S1130B80E89421912032E9F3293010F02E30C8F393
S1130B902B3239F02D3231F4689403C03ED0820FE9
S1130BA0911D219120532A30C8F31EF4909581950C
S1130BB09F4F089542ED56E009C0FB01DC018D9181
S1130BC0019080190110D9F3990B0895FA01A191AC
S1130BD0B081009719F41097E1F0CD01DC01CD014B
S1130BE00D90002011F4C00113C0FB0121912223B8
S1130BF019F02015D9F7F3CFFB012191201519F431
S1130C001E92119606C02223C1F70D900020A1F771
S1130C10D001FA01A193B08308957AE0979F902DB3
S1130C20879F802D910D11240895CF93DF93CDB725
S1130C30DEB7AE014B5F5F4FFA0161917191AF0175
S1130C408091EF069091F00652D0DF91CF910895F4
S1130C500F931F93CF93DF93CDB7DEB72E970FB6C5
S1130C60F894DEBF0FBECDBF0D891E8986E08C834C
S1130C701A8309838FEF9FE79E838D83AE01475EBE
S1130C805F4F6F89788DCE01019631D0EF81F88561
S1130C90E00FF11F10822E960FB6F894DEBF0FBE40
S1130CA0CDBFDF91CF911F910F910895CF93DF9323
S1130CB0CDB7DEB72E970FB6F894DEBF0FBECDBF0B
S1130CC085E08C838B899C899A838983AE01495EF4
S1130CD05F4F6D897E89CE010196B8D32E960FB6EB
S1130CE0F894DEBF0FBECDBFDF91CF9108952F9250
S1130CF03F924F925F926F927F928F929F92AF92A8
S1130D00BF92CF92DF92EF92FF920F931F93CF93F4
S1130D10DF93CDB7DEB72B970FB6F894DEBF0FBEC7
S1130D20CDBF6C017B018A01FC011782168283818D
S1130D3081FFBFC1CE0101963C01F6019381F70109
S1130D4093FD859193FF81917F01882309F4ADC1BF
S1130D50853239F493FD859193FF81917F0185322A
S1130D6021F4B60190E0F0D4E8CF912C212C312C61
S1130D70FFE1F315D8F08B3279F038F4803279F052
S1130D808332A1F4232D20611DC08D3261F08033A4
S1130D9069F4232D216016C0832D8260382EE32D43
S1130DA0E4603E2E2AC0F32DF8601DC037FC2DC030
S1130DB020ED280F2A3040F08E32B9F436FC75C18C
S1130DC0232D2064322E19C036FE06C08AE0989E78
S1130DD0200D1124922E11C0EAE02E9E200D112424
S1130DE0222EF32DF0623F2E08C08C3621F4832D81
S1130DF08068382E02C0883641F4F70193FD85914E
S1130E0093FF81917F018111B3CF982F9F7D9554DA
S1130E10933028F40C5F1F4F9FE399830DC08336F2
S1130E2031F0833771F0833509F055C020C0F801E3
S1130E30808189830E5F1F4F88248394912C5301F2
S1130E4012C02801F2E04F0E511CF801A080B180BD
S1130E5036FE03C0692D70E002C06FEF7FEFC5015D
S1130E602AD44C018201F32DFF773F2E15C02801AF
S1130E7022E0420E511CF801A080B18036FE03C06E
S1130E80692D70E002C06FEF7FEFC50109D44C01FA
S1130E90F32DF0683F2E820133FC19C0822D90E0BF
S1130EA088169906A0F4B60180E290E04DD42A9405
S1130EB0F5CFF50137FC859137FE81915F01B601CD
S1130EC090E042D421102A9421E0821A91088114DE
S1130ED0910479F7E1C0843611F0893639F5F801C7
S1130EE037FE07C060817181828193810C5F1F4F3F
S1130EF008C060817181072E000C880B990B0E5F6E
S1130F001F4FF32DFF763F2E97FF09C090958095D4
S1130F10709561957F4F8F4F9F4FF0683F2E2AE069
S1130F2030E0A30166D4882E861844C0853731F496
S1130F30232D2F7EB22E2AE030E025C0932D997FF9
S1130F40B92E8F36C1F018F4883579F0AEC08037E9
S1130F5019F0883721F0A9C0E92FE061BE2EB4FE54
S1130F600DC0FB2DF460BF2E09C034FE0AC0292F2A
S1130F702660B22E06C028E030E005C020E130E053
S1130F8002C020E132E0F801B7FE07C06081718140
S1130F90828193810C5F1F4F06C06081718180E064
S1130FA090E00E5F1F4FA30124D4882E8618FB2DDA
S1130FB0FF773F2E36FE0DC0232D2E7FA22E8914DF
S1130FC058F434FE0BC032FC09C0832D8E7EA82E4B
S1130FD005C0B82CA32C03C0B82C01C0B92CA4FEA6
S1130FE00FC0FE01E80DF11D8081803321F49A2D9C
S1130FF0997EA92E09C0A2FE06C0B394B39404C07E
S11310008A2D867809F0B394A3FC10C0A0FE06C014
S1131010B21480F4280C922C9B180DC0B21458F40E
S1131020B60180E290E090D3B394F8CFB21418F4F0
S11310302B1802C0982C212CA4FE0FC0B60180E30B
S113104090E082D3A2FE16C0A1FC03C088E790E022
S113105002C088E590E0B6010CC08A2D867851F074
S1131060A1FE02C08BE201C080E2A7FC8DE2B601C2
S113107090E06AD3891430F4B60180E390E064D33D
S11310809A94F8CF8A94F301E80DF11D8081B6019A
S113109090E05AD38110F6CF222009F44ECEB60147
S11310A080E290E051D32A94F7CFF60186819781AC
S11310B002C08FEF9FEF2B960FB6F894DEBF0FBEE2
S11310C0CDBFDF91CF911F910F91FF90EF90DF90F3
S11310D0CF90BF90AF909F908F907F906F905F90D4
S11310E04F903F902F90089520FD09C0FC0123FDEF
S11310F005C022FF02C07383628351834083089535
S113110044FD17C046FD17C0AB01BC01DA01FB0169
S1131110AA0FBB1FEE1FFF1F1094D1F74A0F5B1FCE
S11311206E1F7F1FCB01BA01660F771F881F991F9F
S113113009C033E001C034E0660F771F881F991F90
S11311403150D1F7620F711D811D911D08950F93C8
S11311501F93CF93DF938C01C801B8D2EC0197FDA4
S113116006C08BD2892BC1F7B801CE0129D3CE0199
S1131170DF91CF911F910F9108958F929F92AF921B
S1131180BF92EF92FF920F931F93CF93DF938C0143
S1131190D62F7A01B22E9AD29C0133272B323105F5
S11311A031F02D32310559F48B2D8068B82ED15091
S11311B011F480E061C0C80189D297FDFACFCB2D2C
S11311C0CD7F2B2D2073F9F48033E9F4AA24AA945B
S11311D0AD0E09F43EC0C80179D297FD3AC09C0116
S11311E02F7D33272835310541F4C264D25089F16B
S11311F0C8016CD297FF07C02CC0B6FE02C0C26003
S113120001C0C261DA2D812C912C540120ED280FEC
S1131210283078F0C4FF03C0B801D2D217C02A30F6
S113122040F0C6FFF9CF2F7D3FEE320F3630A0F7E6
S113123027504C2FC501B40163DF4B015C01C26030
S1131240D15051F0C80142D297FFE0CFC1FD04C094
S1131250B0CF812C912C5401C7FF08C0B094A09446
S113126090948094811C911CA11CB11C2C2FB5015D
S1131270A401C70139DF81E0DF91CF911F910F9164
S1131280FF90EF90BF90AF909F908F9008955F92E2
S11312906F927F928F929F92AF92BF92CF92DF9282
S11312A0EF92FF920F931F93CF93DF93CDB7DEB7E7
S11312B0A0970FB6F894DEBF0FBECDBF5C01962E8B
S11312C07A01F9018E010F5F1F4F680180E2D80196
S11312D01D928A95E9F7D50113968C9080E090E0F1
S11312E0612C712C30E061E070E083FC259183FE79
S11312F021918F01522E211103C080E090E090C013
S11313002E3511F4009751F1432F50E04817590737
S11313103CF42D3559F12D3219F4772009F103C02D
S1131320772009F468C0452D469546954695D60123
S1131330A40FB11D452D47708B0102C0000F111F72
S11313404A95E2F7A8015C91452B4C93651459F03A
S1131350561410F45394E7CF5A94E5CF31E004C007
S11313607724739401C0712C0196BFCF772019F0B4
S11313708E8180628E83311103C08824839417C0C8
S1131380F6019E012F5D3F4F8081809581932E173A
S11313903F07D1F7F2CFE114F10429F0D7018C9380
S11313A0F70131967F019A94812C9920E9F0C501C7
S11313B08DD197FD17C0FC01FF2723E0F595E79534
S11313C02A95E1F7EC0DFD1D208130E0AC0147705A
S11313D0552702C0359527954A95E2F720FDDBCFC6
S11313E0B501EED1811089CFE114F10411F0D701D8
S11313F01C92C80115C0422F469546954695D601C4
S1131400A40FB11D422F47708B0102C0000F111FA2
S11314104A95E2F7A8015C91452B4C93622EA4CF28
S1131420A0960FB6F894DEBF0FBECDBFDF91CF916B
S11314301F910F91FF90EF90DF90CF90BF90AF90EE
S11314409F908F907F906F905F9008955F926F92BE
S11314507F928F929F92AF92BF92CF92DF92EF9240
S1131460FF920F931F93CF93DF936C01EB015A010B
S1131470FC0117821682512CF601E380FE01E3FC85
S11314808591E3FE8191182FEF01882309F4E0C0D0
S113149090E0F3D0892B19F0C60159DEEDCF153257
S11314A041F4FE01E3FC1591E3FE1191EF011532C5
S11314B071F4C6010BD197FDC9C0412F50E09C01C6
S11314C0332724173507C1F2B6017AD1C1C01A32C5
S11314D039F4E3FC1591E3FE1191EF0101E001C041
S11314E000E0F12C20ED210F2A3078F402606F2DFA
S11314F070E080E090E040E203DEF62EFE01E3FCC3
S11315001591E3FE1191EF01EDCF01FF03C0F1103E
S113151003C09EC0FF24FA94183619F01C3651F00B
S113152010C0FE01E3FC1591E3FE1191EF011836A2
S113153041F408600460FE01E3FC1591E3FE11919F
S1131540EF01112309F484C0612F70E084EE90E070
S11315509CD0892B09F47CC000FD07C0F501808074
S11315609180C50102965C0102C0812C912C1E362B
S113157049F4F6014681578160E070E0202FC401F0
S1131580B3DD7ACF1336A1F401FD02C0FF24F39436
S1131590C6019CD097FD5AC08114910429F0F4012E
S11315A08083C40101964C01FA94F110F1CF4AC032
S11315B01B3551F49E01A4016F2DC60168DEEC01B8
S11315C0892B09F03FC039C0C601C1DD97FD3EC07B
S11315D01F3649F128F4143621F1193639F125C0A2
S11315E0133771F01537E9F020C08114910429F004
S11315F0F4016082C40101964C01FA94FF2059F071
S1131600C60164D03C0197FD06C037D0892B69F32D
S1131610B601C301D5D081149104A1F0F401108264
S113162011C0006203C0006101C00064202FA40146
S11316306F2DC601A2DD811105C0F601838180737F
S113164029F406C000FD18CF539416CF552019F085
S1131650852D90E002C08FEF9FEFDF91CF911F9116
S11316600F91FF90EF90DF90CF90BF90AF909F903D
S11316708F907F906F905F900895911118C1803280
S113168019F089508550D0F70895FC01059006168D
S113169021F00020D9F7C00108953197CF010895B2
S11316A0FC010590615070400110D8F78095909529
S11316B08E0F9F1F0895FC0161507040019001102E
S11316C0D8F7809590958E0F9F1F0895CF93DF9341
S11316D0EC012B8120FF33C026FF0AC02F7B2B8314
S11316E08E819F8101969F838E838A8190E029C099
S11316F022FF0FC0E881F9818081082E000C990B2C
S1131700009719F420622B831AC03196F983E88379
S11317100EC0EA85FB85099597FF09C02B810196C8
S113172011F080E201C080E1822B8B8308C02E81FE
S11317303F812F5F3F4F3F832E83992702C08FEF56
S11317409FEFDF91CF9108950F931F93CF93DF9372
S1131750FB01238121FD03C08FEF9FEF2CC022FFEB
S113176016C046815781248135814217530744F4BA
S1131770A081B1819D012F5F3F4F318320838C93E2
S1131780268137812F5F3F4F3783268314C08B0117
S1131790EC01FB010084F185E02D0995892BE1F62C
S11317A0D80116968D919C911797019617969C9344
S11317B08E931697CE01DF91CF911F910F910895CB
S11317C0FB01238120FF12C026FD10C08F3F3FEF95
S11317D0930761F082832F7D2064238326813781E0
S11317E02150310937832683992708958FEF9FEF7E
S11317F00895FA01AA27283051F1203181F1E894A3
S11318006F936E7F6E5F7F4F8F4F9F4FAF4FB1E0EF
S11318103ED0B4E03CD0670F781F891F9A1FA11DEA
S1131820680F791F8A1F911DA11D6A0F711D811DEB
S1131830911DA11D20D009F468943F912AE0269FB0
S113184011243019305D3193DEF6CF010895462F0F
S11318504770405D4193B3E00FD0C9F7F6CF462FF0
S11318604F70405D4A3318F0495D31FD4052419359
S113187002D0A9F7EACFB4E0A69597958795779516
S11318806795BA95C9F700976105710508959B019D
S1131890AC010A2E06945795479537952795BA9526
S11318A0C9F7620F731F841F951FA01D0895992700
S11318B088270895DC01CB01FC01F999FECF06C00D
S11318C0F2BDE1BDF89A319600B40D9241505040FA
S11318D0B8F70895A8E1B0E042E050E0EDCFDC01B4
S11318E0CB0102C02D9105D041505040D8F7089546
S11318F0262FF999FECF1FBA92BD81BD20BD0FB628
S1131900F894FA9AF99A0FBE01960895F1DF272FF9
S1091910F0CFF894FFCFB4
S11319160100004842320028001E0014000A005349
S1131926696C76657200313233004E756D6265728C
S1131936206F6620636172733A20004E756D62658E
S11319467220706C617465202D204368696C647222
S1131956656E202D204164756C747300546F746138
S11319666C20616D6F756E7420636F6C6C65637447
S113197665643A2000526573657474696E67206302
S11319866F6E74726F6C6C657220737563636573C6
S11319967366756C2E0045786974696E6720636199
S11319A672206E756D62657220706C6174653A2082
S11319B6002D0054686520656E747279206F662068
S11319C66361722077697468206E756D6265722032
S11319D6706C6174653A200020776173206E6F74B1
S11319E6207265636F726465642E0025732D256409
S11319F62D256400796573006E6F007061726B202B
S1131A0666756C6C004E756D62657220706C6174DF
S1131A16653A200020596F7520656E746572656499
S1131A263A200042656C6F772031307972733A2020
S1131A360041626F76652031307972733A20005422
S1131A466F757269737473207265676973746572EE
S1131A566564207375636365737366756C6C792E40
S1131A6620446174612073746F72656420696E200A
S1131A76454550524F4D2E0D0A0043617220706148
S1131A867373696E672E004761746520636C6F73A8
S1131A96696E6700517565656E20456C697A616289
S1131AA6657468204E2E502E00546F7572697374D7
S1131AB67320696E20746865207061726B3A0D0A32
S1131AC600546F74616C3A20004E756D6265722025
S1131AD66F66206472697665727320696E736964D1
S1131AE66520746865207061726B3A20004E756DCE
S1131AF6626572206F6620626F74746C6573206908
S1131B066E20746865206672696467653A20252EBE
S1131B1632660A004973207061726B2066756C6CBC
S1131B263A20004C6F67676564206F75742E0D0A42
S1131B3600496E76616C69642063686F6963652E1B
S1131B4620506C65617365207472792061676169E0
S1131B566E2E0A00092057656C636F6D6520746FDD
S1131B6620517565656E20456C697A616265746895
S1131B76204E6174696F6E616C207061726B2E0DFC
S1131B860A00506C65617365204C6F67696E20743A
S1131B966F20636F6E74696E75652E0D0A00456E4F
S1131BA674657220796F757220757365726E616DD6
S1131BB6653A2000456E74657220796F75722070DF
S1131BC6617373776F72643A20004C6F67696E2095
S1131BD67375636365737366756C2E0D0A00496EBF
S1131BE676616C696420757365726E616D65206FCC
S1131BF6722070617373776F72642E20506C656106
S1131C0673652074727920616761696E2E0D0A000E
S1131C1643686F6F736520616E206F7074696F6EB1
S1131C263A0D0A00312E2052656769737465722075
S1131C36546F7572697374732E0D0A00322E205414
S1131C466F75726973747320696E20746865207089
S1131C5661726B2E0D0A00332E2043617273206964
S1131C666E20746865207061726B2E0D0A00342E26
S1131C7620546F74616C206D6F6E657920636F6C90
S1131C866C6563746564206279207468652070618C
S1131C96726B2E0D0A00352E204E756D626572200C
S1131CA66F66206472697665727320696E20746843
S1131CB665207061726B2E0D0A00362E204E756DEE
S1131CC6626572206F6620626F74746C6573206936
S1131CD66E20746865206672696467652E0D0A0055
S1131CE6372E205265706C656E697368206672695A
S1131CF66467652E0D0A00382E20436865636B20E1
S1131D066966207061726B2069732066756C6C2E2F
S1131D160D0A00392E204361722065786974696E54
S1131D2667207061726B2E0D0A0031302E204C6FC5
S1131D36676F75742E0D0A00456E74657220616EA8
S1131D46206F7074696F6E2E0D0A00526567697391
S1131D5674726174696F6E00646F6E652E004761FC
S1131D667465206F70656E2E004761746520636C20
S1131D766F73696E672E00426F74746C6520636FAF
S1131D86737473005547583135303000426F74749C
S1131D966C65733A2000546F74616C20436F7374DE
S1131DA63A005547582E00507265737320313A41F4
S1131DB6636365707400507265737320303A205102
S1131DC675697400427965204279652E20546861EC
S1131DD66E6B732E004361722061742067617465B3
S1051DE62E00C9
S9030000FC
