S0100000656D6265646465642E73726563EA
S113000098C00000D9C70000B2C00000B0C0000012
S1130010AEC00000ACC00000AAC00000A8C0000030
S1130020A6C00000A4C00000A2C00000A0C0000040
S11300309EC000009CC000009AC0000098C0000050
S113004096C0000094C0000092C0000090C0000060
S11300508EC000008CC000008AC0000088C0000070
S113006086C0000084C0000082C0000080C0000080
S11300707EC000007CC000007AC0000078C0000090
S113008076C0000074C0000072C0000070C00000A0
S11300906EC000006CC000006AC0000068C00000B0
S11300A066C0000064C0000062C0000060C00000C0
S11300B05EC000005CC000005AC0000058C00000D0
S11300C056C0000054C0000052C0000050C00000E0
S11300D04EC000004CC000004AC0000048C00000F0
S11300E046C000006706D206EE06F006F206FE06DB
S11300F01407160726072E072E072E072E072E078E
S11301002E072E072E072E072E072E072E072E0743
S11301102E072E072E072E072E072E072E072E0733
S11301202E072E0728076364696E6F7073757858FD
S11301305B0011241FBECFEFD1E2DEBFCDBF17E0BD
S1130140A0E0B2E0EAEBFDE100E00BBF02C00790E3
S11301500D92A034B107D9F727E0A0E4B7E001C0BD
S11301601D92A935B207E1F7ECD60C94DB0E48CF0B
S113017080910D0290910E020C94BC0E0895809112
S11301800B0290910C020C94BC0E0895809109020C
S113019090910A020C94BC0E0895DC01FC010190BC
S11301A00020E9F731979F01281B390B21503109B1
S11301B009C0FD01E20FF31F9081911105C0108267
S11301C0215031093323ACF7CD0108951092C500B5
S11301D083E38093C40088E18093C10086E0809328
S11301E0C2000895DC01FC0101900020E9F7319779
S11301F0AF01481B590B20E030E00CC09091C000C7
S113020095FFFCCFFD01E20FF31F90819093C60090
S11302102F5F3F4F241735078CF308958091C0005A
S11302208823E4F78091C60008950F931F93CF931A
S1130230DF93CDB7DEB764970FB6F894DEBF0FBE79
S1130240CDBF9F938F938BED92E09F938F938E01FD
S11302500F5F1F4F1F930F934DD7C801C3DF0F903C
S11302600F900F900F900F900F9064960FB6F89424
S1130270DEBF0FBECDBFDF91CF911F910F910895C7
S1130280CF93DF93EB016FE072E0FCD6892B49F446
S113029066E172E0CE01F6D6892B31F080E090E081
S11302A005C080E090E002C081E090E0DF91CF9152
S11302B00895CF92DF92EF92FF920F931F93CF9303
S11302C06C017B0100E010E00EC0A8DFC82F90E0B5
S11302D089DFCA3069F0CD3059F0F601E00FF11F23
S11302E0C0830F5F1F4FC7010197081719076CF3ED
S11302F0F601E00FF11F1082CF911F910F91FF9033
S1130300EF90DF90CF9008950F931F93CF93DF93D7
S1130310CDB7DEB766970FB6F894DEBF0FBECDBF7C
S113032064E170E08E010F5F1F4FC801C2DFCE0190
S113033045969F938F938BED92E09F938F931F939A
S11303400F9306D70F900F900F900F900F900F9070
S11303508D899E8966960FB6F894DEBF0FBECDBF19
S1130360DF91CF911F910F910895CF9357DFC82F3D
S11303708BE594E037DF8C2FCF9108958AE192E0EA
S113038031DF80910102909102024FDF8BE594E00E
S113039029DF209101023091020282E390E0821B66
S11303A0930B18161906ACF482E390E090930202C2
S11303B0809301028CE392E015DF8AE192E012DF80
S11303C0809101029091020230DF8BE594E00ACF24
S11303D0089581E592E006CF0895809109029091F5
S11303E00A020E94BC0E9093460780934507893CFD
S11303F0910514F081E0089580E008952091430769
S11304003091440712161306DCF4609107027091D0
S113041008024FE050E00E94C10E80914307909182
S11304204407019690934407809343078091070201
S1130430909108020F969093080280930702089502
S113044060910702709108024FE050E00E94C10ED3
S113045080914307909144070196909344078093B9
S1130460430780910702909108020F969093080227
S113047080930702089580910702909108028932BF
S1130480910508F00F970895CF92DF92EF92FF92B3
S11304900F931F93CF93DF93CDB7DEB72F970FB68C
S11304A0F894DEBF0FBECDBF82E892E09BDE809160
S11304B0430790914407B9DE8BE594E093DE83E92A
S11304C092E090DE8BE594E08DDED5DF6C01209127
S11304D043073091440741EF42038001439F100DCD
S11304E011248091070290910802080F191FEE242D
S11304F0E394F12C17C04FE050E0B801CE0101960F
S11305000E94AC0EC70191DE84E094E06BDECE0164
S1130510019668DE8BE594E065DE8FEFE81AF80A51
S1130520015F1F4FC016D10630F72F960FB6F8940F
S1130530DEBF0FBECDBFDF91CF911F910F91FF9012
S1130540EF90DF90CF9008950F931F93CF93DF9395
S1130550EC018B0105C06FEFCE010E94CA0E2196FB
S1130560C017D107C0F3DF91CF911F910F91089568
S113057082DFBC0180E090E0E7DF84EB92E032DED2
S11305808BE594E02FCE0895BC0180910D029091EB
S11305900E020C94D80E0895BC0180910B02909128
S11305A00C020C94D80E0895BC018091090290911C
S11305B00A020C94D80E089580E090E0E5DF80E014
S11305C090E0EADF80E090E0EFCF0895CF92DF92F1
S11305D0EF92FF920F931F93CF93DF93CDB7DEB7C4
S11305E02F970FB6F894DEBF0FBECDBF7B018A01F3
S11305F01F934F93FF926F939F938F9385ED92E098
S11306009F938F93CE0101966C019F938F9372D524
S1130610C601F4DEADDD8E0D9F1DB6DFB0DD800FAB
S1130620911FBADFB3DD800F911F8E0D9F1DBCDFBC
S11306300FB6F894DEBF0FBECDBF2F960FB6F89459
S1130640DEBF0FBECDBFDF91CF911F910F91FF9001
S1130650EF90DF90CF90089584B3886084BB89EFD6
S113066090E00197F1F700C0000084B3877F84BB5A
S113067089EF90E00197F1F700C00000089582B17E
S1130680886082B989EF90E00197F1F700C000001B
S113069082B1877F82B989EF90E00197F1F700C0BA
S11306A0000008958093020184B3826084BB84B304
S11306B08B7F84BBD1CF089581BB82B1826082B924
S11306C082B18B7F82B9DBCF08958093020184B31A
S11306D08D7F84BB84B38B7F84BBBECF089581BBE5
S11306E082B18D7F82B982B18B7F82B9C8CF0895E0
S11306F08FE0EBDF8FE3E9DF81E0E7CF08958FE060
S1130700EEDF8FE3ECDF81E0EACF0895EF92FF9212
S11307100F931F93CF93DF937C01FC010190002082
S1130720E9F731978F01081B190BC0E0D0E006C030
S1130730F701EC0FFD1F8081B5DF2196C017D107AB
S1130740BCF3DF91CF911F910F91FF90EF9008952B
S1130750EF92FF920F931F93CF93DF937C01FC01E1
S113076001900020E9F731978F01081B190BC0E0B5
S1130770D0E006C0F701EC0FFD1F80819DDF2196BC
S1130780C017D107BCF3DF91CF911F910F91FF9058
S1130790EF900895EF92FF920F931F93CF93DF93FF
S11307A07C0181E09CDFF70101900020E9F731979B
S11307B08F010E191F09C0E0D0E006C0F701EC0F4D
S11307C0FD1F808179DF2196C017D107BCF3DF912B
S11307D0CF911F910F91FF90EF900895CF92DF92E8
S11307E0EF92FF920F931F93CF93DF93CDB7DEB7B2
S11307F0A4970FB6F894DEBF0FBECDBF8EED92E086
S1130800F1DC6FE070E0CE01019653DD8BE594E0FE
S1130810E9DC209143073091440741EF4203800112
S1130820439F100D11248091070290910802080F34
S1130830191F21DE8017910708F477C04FE050E0BC
S1130840B801CE0140960E94AC0E69EF72E0CE0171
S1130850409615D498A38F8FEE24E394F12C13C003
S113086069EF72E080E090E00AD4F701EE0FFF1F19
S113087021E030E02C0F3D1FE20FF31F978F868F8E
S11308803FEFE31AF30A892B59F7EF8CF8A0CE0156
S1130890019683DCB701F6D3892B09F03AC0809125
S11308A0430790914407019790934407809343072B
S11308B0B801615F7F4FC80147DE5ADC8C01E9A0B3
S11308C0FAA0C701BFD39801281B390BC9015CDE0C
S11308D056DC6C010BA11CA1C801B4D39601281BE2
S11308E0390BC90159DEC701ADD37C01C801AAD3B4
S11308F08E0D9F1D59DE8BEF92E04CDF3FE78AE1BE
S113090096E0315080409040E1F700C0000042DFA3
S11309100CC081E193E066DCCE01019663DC86E3E2
S113092093E060DC8BE594E05DDCA4960FB6F8946C
S1130930DEBF0FBECDBFDF91CF911F910F91FF900E
S1130940EF90DF90CF9008958BEF80930B0180910F
S1130950090183FD07C081E090E0909358078093DC
S1130960570715C08091090184FD07C084E090E019
S113097090935807809357070AC08091090185FD19
S113098006C087E090E090935807809357078DEF57
S113099080930B018091090183FD07C082E090E000
S11309A090935807809357071EC08091090184FDD6
S11309B007C085E090E0909358078093570713C0D1
S11309C08091090185FD07C088E090E09093580765
S11309D08093570708C08091090186FD04C01092D6
S11309E05807109257078EEF80930B0180910901ED
S11309F083FD07C083E090E09093580780935707E6
S1130A0015C08091090184FD07C086E090E09093B1
S1130A105807809357070AC08091090185FD06C0D5
S1130A2089E090E090935807809357078091570787
S1130A30909158070895CF92DF92EF92FF920F930F
S1130A401F93CF93DF93CDB7DEB728970FB6F894F3
S1130A50DEBF0FBECDBF81E038DE80E836DE89E43C
S1130A6093E054DE89EC31DE86E593E04FDE80E9E5
S1130A702CDE8EE593E04ADE00E010E002C064DF85
S1130A808C0101151105D9F389E91FDE80E3800F7C
S1130A9009DE2FE946E881E0215040408040E1F73B
S1130AA000C000008CED95E0089F7001099FF00CD8
S1130AB0189FF00C1124FF92EF928BED92E09F931C
S1130AC08F93CE0101966C019F938F9313D381E092
S1130AD0FCDD80E8FADD83ED90E30197F1F700C0D7
S1130AE0000088E693E012DE85ECEFDDC6010EDE41
S1130AF08AECEBDD84E793E009DE83ED90E3019774
S1130B00F1F700C0000080E9E0DD89E793E0FEDD55
S1130B1080EDDBDD88E893E0F9DD0F900F900F9016
S1130B200F900F900F907CC081E0CFDD80E8CDDD89
S1130B3086E993E0EBDD20E030E01CC0E8E0F1E082
S1130B408081816080839FE34DE083E09150404049
S1130B508040E1F700C0000080818E7F80839FE3A6
S1130B604DE083E0915040408040E1F700C0000038
S1130B702F5F3F4F233031050CF39FE72AE146E016
S1130B80915020404040E1F700C0000020E030E0F8
S1130B901CC0E8E0F1E08081826080838FE79AE105
S1130BA046E0815090404040E1F700C00000808161
S1130BB08D7F80838FE79AE146E0815090404040EA
S1130BC0E1F700C000002F5F3F4F201731070CF3FF
S1130BD08091470790914807E80EF91EF092480764
S1130BE0E09247078091010290910202801B910BD1
S1130BF0909302028093010218C0892B89F481E04A
S1130C0064DD80E862DD80EA93E080DD8FE79AE1CD
S1130C1026E0815090402040E1F700C0000005C06C
S1130C2093DE8930910549F77FCF28960FB6F89463
S1130C30DEBF0FBECDBFDF91CF911F910F91FF900B
S1130C40EF90DF90CF9008950F931F93CF93DF938E
S1130C50609103027091040242E050E087E497E05F
S1130C600E94C10EE8DE8C019093480780934707E9
S1130C707FDA28E833E1829FE001839FD00D929FC1
S1130C80D00D11247CDA019740E157E2849F900152
S1130C90859F300D949F300D1124C20FD31FC00FB8
S1130CA0D11F81EB93E09EDACE01BFDA8BE594E0AD
S1130CB099DADF91CF911F910F910895C1978132F5
S1130CC0910508F0CBC08E589F4FFC01B2C185DB63
S1130CD0882321F081ED93E05DCD08958BED93E0C1
S1130CE059DD89EE93E07EDA6AE070E08DE497E006
S1130CF0E0DA88EF93E076DA8DE497E073DA8BE557
S1130D0094E070DA87E094E06DDAFEDA90934C07B1
S1130D1080934B0788EF93E065DA80914B079091BD
S1130D204C0783DA8BE594E05DDA85E194E05ADAE6
S1130D30EBDA90934A078093490788EF93E052DAFD
S1130D408091490790914A0770DA8BE594E04ADA7A
S1130D504091490750914A0760914B0770914C07A5
S1130D608DE497E033DC83E294E03CDA8EE594E0B2
S1130D7011DDFFE72AE186E0F15020408040E1F7F1
S1130D8000C000008CE694E005DD9FEBE7E2F9E0AB
S1130D909150E040F040E1F700C0000089E794E0A2
S1130DA0F9CC08958EE894E01DDA87E094E01ADA2D
S1130DB0DFD93BDA8BE594E015DA85E194E012DAC9
S1130DC0DED933DA8BE594E00DDA86EA94E00ADAC8
S1130DD0DDD92BDA8BE594E005CA089555CB089547
S1130DE033CF08958EEA94E0FDD980914307909122
S1130DF044071BDA8BE594E0F5C908956091050278
S1130E007091060242E050E081E092E0BAD713DE2E
S1130E108AE192E0E7D9809101029091020205DA19
S1130E208BE594E0DFC90895A9CA089582ED94E0A2
S1130E30D9D9D3DA882319F08AEC93E002C08EEC76
S1130E4093E0D0D98BE594E0CDC90895C7CC08953B
S1130E501092420781EE94E0C5C908958FEE94E0A4
S1130E60C1C908951F93CF93DF93CDB7DEB7A89779
S1130E700FB6F894DEBF0FBECDBF82E195E0B2D9C4
S1130E8080E495E0AFD910E026C08CE595E0AAD9BE
S1130E9064E170E0CE0101960CDA8BE594E0A2D90E
S1130EA082E795E09FD964E170E0CE01459601DACE
S1130EB08BE594E097D9BE016B5E7F4FCE0101961E
S1130EC0DFD9892B29F088E895E08CD911E003C09B
S1130ED08CE995E087D91123C1F28EEC95E082D993
S1130EE082EE95E07FD98AEF95E07CD985E196E0A2
S1130EF079D98CE296E076D984E596E073D988E7CF
S1130F0096E070D98EE996E06DD985EB96E06AD9C2
S1130F1081ED96E067D988EE96E064D985EF96E096
S1130F2061D923DA182F90E0C9DE1135B1F6A896FD
S1130F300FB6F894DEBF0FBECDBFDF91CF911F91E6
S1130F40089587E880930A01CFEFC0930101C3BBE2
S1130F50C0930701C0BBC1B9D2DBCADB88E097E00C
S1130F60F7DB80ECBCDB83E197E0F2DB80E9B7DB05
S1130F7083E297E0EDDB2FE78AE196E021508040A1
S1130F809040E1F700C0000021D916DB78948DB3BE
S1130F9081608DBBE9E6F0E08081826080831AB8CD
S1130FA0C4B98BB181608BB980910002882311F0A0
S1130FB0DFDA02DB57DFFECF1F920F920FB60F92DC
S1130FC011240BB60F922F933F934F935F936F931C
S1130FD07F938F939F93AF93BF93EF93FF9389B1C5
S1130FE090E08E7F892B91F085B1806885B92FE9D7
S1130FF086E891E0215080409040E1F700C0000075
S113100085B18F7785B982E397E0C4DBFF91EF91D7
S1131010BF91AF919F918F917F916F915F914F910C
S11310203F912F910F900BBE0F900FBE0F901F900A
S11310301895EE0FFF1F0024001C0BBE0790F691BD
S1131040E02D0994FC0188279927E8942191203206
S1131050E9F3293010F02E30C8F32B3239F02D3259
S113106031F4689403C03ED0820F911D2191205326
S11310702A30C8F31EF4909581959F4F089540E45B
S113108057E009C0FB01DC018D910190801901102A
S1131090D9F3990B0895FA01A191B081009719F43D
S11310A01097E1F0CD01DC01CD010D90002011F489
S11310B0C00113C0FB012191222319F02015D9F797
S11310C0F3CFFB012191201519F41E92119606C04D
S11310D02223C1F70D900020A1F7D001FA01A193BA
S11310E0B08308957AE0979F902D879F802D910D6E
S11310F0112408950F931F93CF93DF93CDB7DEB7D9
S11311002E970FB6F894DEBF0FBECDBF0D891E8992
S113111086E08C831A8309838FEF9FE79E838D83F8
S1131120AE01475E5F4F6F89788DCE01019631D055
S1131130EF81F885E00FF11F10822E960FB6F89418
S1131140DEBF0FBECDBFDF91CF911F910F910895E8
S1131150CF93DF93CDB7DEB72E970FB6F894DEBFEB
S11311600FBECDBF85E08C838B899C899A8389834C
S1131170AE01495E5F4F6D897E89CE010196B8D379
S11311802E960FB6F894DEBF0FBECDBFDF91CF9180
S113119008952F923F924F925F926F927F928F9217
S11311A09F92AF92BF92CF92DF92EF92FF920F93F2
S11311B01F93CF93DF93CDB7DEB72B970FB6F89479
S11311C0DEBF0FBECDBF6C017B018A01FC0117821B
S11311D01682838181FFBFC1CE0101963C01F601D5
S11311E09381F70193FD859193FF81917F0188237A
S11311F009F4ADC1853239F493FD859193FF819152
S11312007F01853221F4B60190E0F0D4E8CF912C2F
S1131210212C312CFFE1F315D8F08B3279F038F41E
S1131220803279F08332A1F4232D20611DC08D32E8
S113123061F0803369F4232D216016C0832D826010
S1131240382EE32DE4603E2E2AC0F32DF8601DC035
S113125037FC2DC020ED280F2A3040F08E32B9F42F
S113126036FC75C1232D2064322E19C036FE06C00B
S11312708AE0989E200D1124922E11C0EAE02E9E41
S1131280200D1124222EF32DF0623F2E08C08C363F
S113129021F4832D8068382E02C0883641F4F7018A
S11312A093FD859193FF81917F018111B3CF982F95
S11312B09F7D9554933028F40C5F1F4F9FE39983CF
S11312C00DC0833631F0833771F0833509F055C092
S11312D020C0F801808189830E5F1F4F8824839486
S11312E0912C530112C02801F2E04F0E511CF80159
S11312F0A080B18036FE03C0692D70E002C06FEF9C
S11313007FEFC5012AD44C018201F32DFF773F2ED4
S113131015C0280122E0420E511CF801A080B180C2
S113132036FE03C0692D70E002C06FEF7FEFC50188
S113133009D44C01F32DF0683F2E820133FC19C00F
S1131340822D90E088169906A0F4B60180E290E020
S11313504DD42A94F5CFF50137FC859137FE819160
S11313605F01B60190E042D421102A9421E0821A50
S113137091088114910479F7E1C0843611F089361B
S113138039F5F80137FE07C060817181828193814C
S11313900C5F1F4F08C060817181072E000C880B01
S11313A0990B0E5F1F4FF32DFF763F2E97FF09C059
S11313B090958095709561957F4F8F4F9F4FF06802
S11313C03F2E2AE030E0A30166D4882E861844C05C
S11313D0853731F4232D2F7EB22E2AE030E025C04C
S11313E0932D997FB92E8F36C1F018F4883579F092
S11313F0AEC0803719F0883721F0A9C0E92FE06129
S1131400BE2EB4FE0DC0FB2DF460BF2E09C034FE09
S11314100AC0292F2660B22E06C028E030E005C09D
S113142020E130E002C020E132E0F801B7FE07C05D
S113143060817181828193810C5F1F4F06C060813E
S1131440718180E090E00E5F1F4FA30124D4882EA9
S11314508618FB2DFF773F2E36FE0DC0232D2E7FE1
S1131460A22E891458F434FE0BC032FC09C0832D1B
S11314708E7EA82E05C0B82CA32C03C0B82C01C0A6
S1131480B92CA4FE0FC0FE01E80DF11D808180334C
S113149021F49A2D997EA92E09C0A2FE06C0B39408
S11314A0B39404C08A2D867809F0B394A3FC10C0C9
S11314B0A0FE06C0B21480F4280C922C9B180DC018
S11314C0B21458F4B60180E290E090D3B394F8CF0C
S11314D0B21418F42B1802C0982C212CA4FE0FC0AF
S11314E0B60180E390E082D3A2FE16C0A1FC03C043
S11314F088E790E002C088E590E0B6010CC08A2D30
S1131500867851F0A1FE02C08BE201C080E2A7FC04
S11315108DE2B60190E06AD3891430F4B60180E319
S113152090E064D39A94F8CF8A94F301E80DF11D06
S11315308081B60190E05AD38110F6CF222009F4BD
S11315404ECEB60180E290E051D32A94F7CFF60153
S11315508681978102C08FEF9FEF2B960FB6F89488
S1131560DEBF0FBECDBFDF91CF911F910F91FF90D2
S1131570EF90DF90CF90BF90AF909F908F907F902F
S11315806F905F904F903F902F90089520FD09C079
S1131590FC0123FD05C022FF02C0738362835183D3
S11315A04083089544FD17C046FD17C0AB01BC013C
S11315B0DA01FB01AA0FBB1FEE1FFF1F1094D1F726
S11315C04A0F5B1F6E1F7F1FCB01BA01660F771F87
S11315D0881F991F09C033E001C034E0660F771FEC
S11315E0881F991F3150D1F7620F711D811D911D04
S11315F008950F931F93CF93DF938C01C801B8D242
S1131600EC0197FD06C08BD2892BC1F7B801CE013E
S113161029D3CE01DF91CF911F910F9108958F921D
S11316209F92AF92BF92EF92FF920F931F93CF932B
S1131630DF938C01D62F7A01B22E9AD29C013327E4
S11316402B32310531F02D32310559F48B2D806860
S1131650B82ED15011F480E061C0C80189D297FD41
S1131660FACFCB2DCD7F2B2D2073F9F48033E9F401
S1131670AA24AA94AD0E09F43EC0C80179D297FDFC
S11316803AC09C012F7D33272835310541F4C264CB
S1131690D25089F1C8016CD297FF07C02CC0B6FEA6
S11316A002C0C26001C0C261DA2D812C912C5401A8
S11316B020ED280F283078F0C4FF03C0B801D2D23F
S11316C017C02A3040F0C6FFF9CF2F7D3FEE320F0E
S11316D03630A0F727504C2FC501B40163DF4B010E
S11316E05C01C260D15051F0C80142D297FFE0CFF3
S11316F0C1FD04C0B0CF812C912C5401C7FF08C098
S1131700B094A09490948094811C911CA11CB11C51
S11317102C2FB501A401C70139DF81E0DF91CF91FE
S11317201F910F91FF90EF90BF90AF909F908F907B
S113173008955F926F927F928F929F92AF92BF9221
S1131740CF92DF92EF92FF920F931F93CF93DF9389
S1131750CDB7DEB7A0970FB6F894DEBF0FBECDBFEE
S11317605C01962E7A01F9018E010F5F1F4F68010B
S113177080E2D8011D928A95E9F7D50113968C90E1
S113178080E090E0612C712C30E061E070E083FC3B
S1131790259183FE21918F01522E211103C080E0F7
S11317A090E090C02E3511F4009751F1432F50E092
S11317B0481759073CF42D3559F12D3219F4772087
S11317C009F103C0772009F468C0452D4695469574
S11317D04695D601A40FB11D452D47708B0102C05B
S11317E0000F111F4A95E2F7A8015C91452B4C9319
S11317F0651459F0561410F45394E7CF5A94E5CF76
S113180031E004C07724739401C0712C0196BFCFDA
S1131810772019F08E8180628E83311103C0882471
S1131820839417C0F6019E012F5D3F4F8081809500
S113183081932E173F07D1F7F2CFE114F10429F079
S1131840D7018C93F70131967F019A94812C9920CA
S1131850E9F0C5018DD197FD17C0FC01FF2723E0F6
S1131860F595E7952A95E1F7EC0DFD1D208130E013
S1131870AC014770552702C0359527954A95E2F784
S113188020FDDBCFB501EED1811089CFE114F10445
S113189011F0D7011C92C80115C0422F46954695F8
S11318A04695D601A40FB11D422F47708B0102C08B
S11318B0000F111F4A95E2F7A8015C91452B4C9348
S11318C0622EA4CFA0960FB6F894DEBF0FBECDBF94
S11318D0DF91CF911F910F91FF90EF90DF90CF9008
S11318E0BF90AF909F908F907F906F905F9008957E
S11318F05F926F927F928F929F92AF92BF92CF929C
S1131900DF92EF92FF920F931F93CF93DF936C01BB
S1131910EB015A01FC0117821682512CF601E38077
S1131920FE01E3FC8591E3FE8191182FEF018823EA
S113193009F4E0C090E0F3D0892B19F0C60159DE18
S1131940EDCF153241F4FE01E3FC1591E3FE119154
S1131950EF01153271F4C6010BD197FDC9C0412FB7
S113196050E09C01332724173507C1F2B6017AD120
S1131970C1C01A3239F4E3FC1591E3FE1191EF0171
S113198001E001C000E0F12C20ED210F2A3078F4B1
S113199002606F2D70E080E090E040E203DEF62EFE
S11319A0FE01E3FC1591E3FE1191EF01EDCF01FF80
S11319B003C0F11003C09EC0FF24FA94183619F036
S11319C01C3651F010C0FE01E3FC1591E3FE1191A9
S11319D0EF01183641F408600460FE01E3FC159140
S11319E0E3FE1191EF01112309F484C0612F70E02B
S11319F086E291E09CD0892B09F47CC000FD07C0ED
S1131A00F50180809180C50102965C0102C0812CA1
S1131A10912C1E3649F4F6014681578160E070E04E
S1131A20202FC401B3DD7ACF1336A1F401FD02C027
S1131A30FF24F394C6019CD097FD5AC081149104ED
S1131A4029F0F4018083C40101964C01FA94F11049
S1131A50F1CF4AC01B3551F49E01A4016F2DC6017C
S1131A6068DEEC01892B09F03FC039C0C601C1DD35
S1131A7097FD3EC01F3649F128F4143621F119367A
S1131A8039F125C0133771F01537E9F020C08114FE
S1131A90910429F0F4016082C40101964C01FA9486
S1131AA0FF2059F0C60164D03C0197FD06C037D031
S1131AB0892B69F3B601C301D5D081149104A1F037
S1131AC0F401108211C0006203C0006101C000640F
S1131AD0202FA4016F2DC601A2DD811105C0F601DE
S1131AE08381807329F406C000FD18CF539416CF68
S1131AF0552019F0852D90E002C08FEF9FEFDF9104
S1131B00CF911F910F91FF90EF90DF90CF90BF90F6
S1131B10AF909F908F907F906F905F9008959111F8
S1131B2018C1803219F089508550D0F70895FC010E
S1131B300590061621F00020D9F7C00108953197C9
S1131B40CF010895FC010590615070400110D8F751
S1131B50809590958E0F9F1F0895FC0161507040F1
S1131B6001900110D8F7809590958E0F9F1F0895CE
S1131B70CF93DF93EC012B8120FF33C026FF0AC0F3
S1131B802F7B2B838E819F8101969F838E838A81F5
S1131B9090E029C022FF0FC0E881F9818081082EDE
S1131BA0000C990B009719F420622B831AC031960C
S1131BB0F983E8830EC0EA85FB85099597FF09C080
S1131BC02B81019611F080E201C080E1822B8B838E
S1131BD008C02E813F812F5F3F4F3F832E8399277B
S1131BE002C08FEF9FEFDF91CF9108950F931F9362
S1131BF0CF93DF93FB01238121FD03C08FEF9FEF80
S1131C002CC022FF16C0468157812481358142179A
S1131C10530744F4A081B1819D012F5F3F4F31836D
S1131C2020838C93268137812F5F3F4F3783268310
S1131C3014C08B01EC01FB010084F185E02D0995B2
S1131C40892BE1F6D80116968D919C9117970196F0
S1131C5017969C938E931697CE01DF91CF911F9187
S1131C600F910895FB01238120FF12C026FD10C0AF
S1131C708F3F3FEF930761F082832F7D206423839E
S1131C802681378121503109378326839927089586
S1131C908FEF9FEF0895FA01AA27283051F12031E0
S1131CA081F1E8946F936E7F6E5F7F4F8F4F9F4FEC
S1131CB0AF4FB1E03ED0B4E03CD0670F781F891F2E
S1131CC09A1FA11D680F791F8A1F911DA11D6A0FFC
S1131CD0711D811D911DA11D20D009F468943F91AF
S1131CE02AE0269F11243019305D3193DEF6CF01AE
S1131CF00895462F4770405D4193B3E00FD0C9F774
S1131D00F6CF462F4F70405D4A3318F0495D31FDE0
S1131D104052419302D0A9F7EACFB4E0A695979533
S1131D20879577956795BA95C9F700976105710509
S1131D3008959B01AC010A2E069457954795379553
S1131D402795BA95C9F7620F731F841F951FA01DAD
S1131D500895992788270895DC01CB01FC01F9999E
S1131D60FECF06C0F2BDE1BDF89A319600B40D92E3
S1131D7041505040B8F70895A8E1B0E042E050E087
S1131D80EDCFDC01CB0102C02D9105D04150504074
S1131D90D8F70895262FF999FECF1FBA92BD81BDB9
S1131DA020BD0FB6F894FA9AF99A0FBE01960895D9
S10D1DB0F1DF272FF0CFF894FFCFE6
S1131DBA0132003C003C003200280014000A00539F
S1131DCA696C76657200313233004E756D626572E4
S1131DDA206F6620626F74746C657320696E207458
S1131DEA6865206672696467653A20005265706C9A
S1131DFA656E697368696E6720646F6E652E0D0A75
S1131E0A0046726964676520697320616C72656152
S1131E1A64792073746F636B6564207769746820CE
S1131E2A656E6F75676820626F74746C65732E0DC6
S1131E3A0A004E756D626572206F66206361727363
S1131E4A3A20004E756D62657220706C617465206B
S1131E5A2D204368696C6472656E202D2041647577
S1131E6A6C747300526573657474696E6720636F6A
S1131E7A6E74726F6C6C65722073756363657373C9
S1131E8A66756C2E0025732D25642D25640045780E
S1131E9A6974696E6720636172206E756D6265721A
S1131EAA20706C6174653A20002D004361722065CC
S1131EBA786974696E6720746865207061726B2E24
S1131ECA0054686520656E747279206F66206361B8
S1131EDA722077697468206E756D62657220706C01
S1131EEA6174653A200020776173206E6F742072E2
S1131EFA65636F726465642E00426F74746C652046
S1131F0A636F737473005547583135303000426F2C
S1131F1A74746C65733A2000546F74616C20436F57
S1131F2A73743A005547582E0050726573732039FA
S1131F3A3A41636365707400507265737320303A72
S1131F4A20517569740041636365707465642E0079
S1131F5A427965204279652E205468616E6B732E2E
S1131F6A00546F74616C20616D6F756E7420636FB9
S1131F7A6C6C65637465643A2000796573006E6FEE
S1131F8A007061726B2066756C6C005265676973C8
S1131F9A74726174696F6E2E004E756D626572207B
S1131FAA706C6174653A200020596F7520656E74EF
S1131FBA657265643A200042656C6F772031307926
S1131FCA72733A200041626F7665203130797273F8
S1131FDA3A2000546F757269737473207265676965
S1131FEA7374657265642073756363657373667568
S1131FFA6C6C792E20446174612073746F72656409
S113200A20696E20454550524F4D2E0D0A004361FA
S113201A7220656E746572696E672E004761746515
S113202A20636C6F73696E6700517565656E204530
S113203A6C697A6162657468204E2E502E00546F62
S113204A75726973747320696E207468652070618F
S113205A726B3A0D0A00546F74616C3A20004E7523
S113206A6D626572206F6620647269766572732088
S113207A696E7369646520746865207061726B3A6D
S113208A20004973207061726B2066756C6C3A206B
S113209A004C6F67676564206F75742E0D0A0049DA
S11320AA6E76616C69642063686F6963652E20507B
S11320BA6C656173652074727920616761696E2E3B
S11320CA0A00092057656C636F6D6520746F20518F
S11320DA7565656E20456C697A6162657468204E1F
S11320EA6174696F6E616C207061726B2E0D0A00E7
S11320FA506C65617365204C6F67696E20746F203C
S113210A636F6E74696E75652E0D0A00456E74658B
S113211A7220796F757220757365726E616D653A96
S113212A2000456E74657220796F75722070617330
S113213A73776F72643A20004C6F67696E20737507
S113214A636365737366756C2E0D0A00496E766156
S113215A6C696420757365726E616D65206F722097
S113216A70617373776F72642E20506C6561736546
S113217A2074727920616761696E2E0D0A004368C2
S113218A6F6F736520616E206F7074696F6E3A0D9C
S113219A0A00312E20526567697374657220546F80
S11321AA7572697374732E0D0A00322E20546F757A
S11321BA726973747320696E207468652070617221
S11321CA6B2E0D0A00332E204361727320696E2030
S11321DA746865207061726B2E0D0A00342E2054C7
S11321EA6F74616C206D6F6E657920636F6C6C65BA
S11321FA6374656420627920746865207061726B07
S113220A2E0D0A00352E204E756D626572206F669A
S113221A206472697665727320696E207468652019
S113222A7061726B2E0D0A00362E204E756D626532
S113223A72206F6620626F74746C657320696E20F5
S113224A746865206672696467652E0D0A00372E04
S113225A205265706C656E6973682066726964677A
S113226A652E0D0A00382E20436865636B20696663
S113227A207061726B2069732066756C6C2E0D0A6E
S113228A00392E204361722065786974696E67206B
S113229A7061726B2E0D0A00512E204C6F676F7598
S11322AA742E0D0A00456E74657220616E206F707B
S11322BA74696F6E2E0D0A0057454C434F4D4520E5
S11322CA544F00515545454E20454C495A414245C3
S11322DA5448004E4154494F4E414C205041524BB0
S11322EA2E0043617220617420476174652E0000D8
S9030000FC
